:020000040800F2
:100000000841002079020008472B000863230008FC
:10001000452B0008451F00084D3E00080000000069
:10002000000000000000000000000000393300085C
:100030007121000800000000CB310008A134000845
:10004000930200089302000893020008930200083C
:10005000930200089302000893020008930200082C
:10006000930200089302000893020008930200081C
:10007000930200089302000893020008930200080C
:1000800093020008930200089302000893020008FC
:1000900093020008930200089302000893020008EC
:1000A00093020008930200089302000893020008DC
:1000B0007B350008A53600081137000893020008B8
:1000C00093020008930200089302000893020008BC
:1000D0009302000893020008913B00089302000875
:1000E000930200089302000893020008930200089C
:1000F000930200089302000893020008930200088C
:1001000093020008930200082138000893020008B7
:10011000930200089302000893020008930200086B
:10012000930200089302000893020008930200085B
:1001300000F002F800F090F80AA090E8000C824469
:100140008344AAF10107DA4501D100F085F8AFF246
:10015000090EBAE80F0013F0010F18BFFB1A43F0A5
:10016000010318475CB700007CB70000103A24BFB9
:1001700078C878C1FAD8520724BF30C830C144BF0C
:1001800004680C607047000000230024002500264E
:10019000103A28BF78C1FBD8520728BF30C148BFEA
:1001A0000B6070476E2900F07683702900F0ED86B1
:1001B000662907F09684652907F09384672907F07C
:1001C00090846129AFF3008003681B0A28BF41F0C7
:1001D0008001692900F0D080642900F0CD80752964
:1001E00000F0CA806F2900F07B86782900F0B9867C
:1001F000E92900F01586E42900F01286F52900F0BF
:100200000F86EF2900F07886F82900F0B886036899
:10021000DB0928BF41F08001632900F08485732940
:1002200000F08985E32900F04F87F32900F0548717
:10023000002070471FB500F0B3FE0400002000212D
:1002400006F02EFE401C60600020002106F012FE29
:10025000E0601FBD10B510BD00F0D8FF1146FFF7DC
:10026000E9FF04F00DFB00F0FFFF03B4FFF7F2FF1E
:1002700003BC04F05AF900000948804709480047C8
:10028000FEE7FEE7FEE7FEE7FEE7FEE7FEE7FEE746
:10029000FEE7FEE704480549054A064B70470000A3
:1002A000A534000831010008083B00200841002067
:1002B000083D0020083D0020704700001CB50C469A
:1002C000064B7B4469460090204600F00AFD044638
:1002D0000020694600F018FD20461CBD430A0000BE
:1002E0000FB4044910B503AA029800F029FD10BC10
:1002F0005DF814FB1C0000200FB41CB5084B06AAC7
:100300007B4469460090059800F0EBFC0446002011
:10031000694600F0F9FC20461CBC5DF814FB0000A7
:10032000050A000070B50C460546012A05D028785C
:10033000800600D5EA69002302E0012305E05B1C8A
:10034000934202D2E05C0028F9D1A869E618C01AED
:10035000A861286A18442862284600F00AFA04E0D6
:10036000D5E9012114F8010B9047B442F8D328468F
:1003700000F015FA70BD00002DE9F041064600249A
:1003800010687529314616A510D000F019FA00281A
:1003900002DA404213A507E031688A0701D512A5A9
:1003A00002E0490704D511A5012401E000F011FA8B
:1003B00000210A2206F1240709E0B0FBF2FCB0FBA1
:1003C000F2F302FB1C00303078541846491C002818
:1003D000F3D123462A463046BDE8F04100F002BA88
:1003E000000000002D0000002B0000002000000095
:1003F0002DE9F05F894604464FF0000ADFF874B13A
:10040000FB44C0F820A02046E1688847002874D04B
:10041000252806D0D4E901219047206A401C20629B
:10042000F1E700265F462046E16888472028054618
:1004300007DB312D05D2781910F8200C08B10643DE
:10044000F1E7B00701D526F00406C4F81CA0002788
:10045000C4F818A02A2D09D0284604F05FF838B354
:1004600004EB8708303DC8F8185019E059F8041B10
:10047000204604EB87029161E1688847012F054619
:1004800018D1E069002820DA26F020061DE0D8F80F
:10049000180000EB800005EB40003038C8F8180069
:1004A0002046E1688847054604F038F80028EED178
:1004B000012F0AD02E2D08D12046E16888477F1CE5
:1004C0000546022F46F02006C4DBA069002803DAA7
:1004D000404246F00106A061F00701D026F0100668
:1004E0006C2D0BD0682D09D04C2D39D06A2D35D00C
:1004F000742D35D07A2D33D016E038E0E1682F46E0
:1005000020468847B842054609D16C2F26D04FF4C3
:100510008060E168064320468847054604E06C2F6A
:100520001AD04FF4807006430DB3A5F1410019288D
:1005300002D8203546F400664A4629462046266001
:100540004E46FFF72FFE80B101280BD0F61D26F096
:10055000070000F1080956E74020E4E78020D8E7CB
:100560000020D6E706F104094DE7284652E7206A45
:10057000BDE8F09F72B1000030B505460B462A4633
:1005800013F8014B12F8010B08B1A042F8D01CB1CE
:10059000002802D06D1CF1E7284630BD10B5431C81
:1005A00002E010F8011B71B18107FAD14FF001325E
:1005B00002C88C1A8C4314EAC211F9D0C01A0A0678
:1005C00003D0C01E10BDC01A10BD0A0401D0801E89
:1005D00010BD0902FCD0401E10BD032A40F230803D
:1005E00010F0030C00F0158011F8013BBCF1020F74
:1005F000624498BF11F801CB00F8013B38BF11F8F5
:10060000013BA2F1040298BF00F801CB38BF00F80B
:10061000013B11F0030300F02580083AC0F0088088
:1006200051F8043B083A51F804CBA0E80810F5E76C
:10063000121D5CBF51F8043B40F8043BAFF300804F
:10064000D20724BF11F8013B11F801CB48BF11F8C4
:10065000012B24BF00F8013B00F801CB48BF00F894
:10066000012B704710B5203AC0F00B80B1E818504C
:10067000203AA0E81850B1E81850A0E81850BFF48C
:10068000F5AF5FEA027C24BFB1E81850A0E818502B
:1006900044BF18C918C0BDE810405FEA827C24BF7F
:1006A00051F8043B40F8043B08BF7047D20728BF0D
:1006B00031F8023B48BF11F8012B28BF20F8023B5C
:1006C00048BF00F8012B704702F0FF0343EA032202
:1006D00042EA024200F002B84FF000020429C0F0E2
:1006E000128010F0030C00F01B80CCF1040CBCF164
:1006F000020F18BF00F8012BA8BF20F8022BA1EBB6
:100700000C0100F00DB85FEAC17C24BF00F8012B9A
:1007100000F8012B48BF00F8012B70474FF0000292
:1007200000B5134694469646203922BFA0E80C50E7
:10073000A0E80C50B1F12001BFF4F7AF090728BFC2
:10074000A0E80C5048BF0CC05DF804EB890028BF3E
:1007500040F8042B08BF704748BF20F8022B11F067
:10076000804F18BF00F8012B7047704770477047E3
:10077000704770B5044685690068C10601D530260A
:1007800000E02026C00707D070BDD4E90121304623
:100790009047206A401C20626D1EF6D570BD70B572
:1007A000044685690078C00707D170BDD4E90121EE
:1007B00020209047206A401C20626D1EF6D570BD37
:1007C00009684A0501D540B27047C905FCD500B299
:1007D000704709684A0501D5C0B27047C905FCD504
:1007E00080B270472DE9F0470D469946924604467F
:1007F00000F124080168880604D5E06921F01001A1
:10080000216000E00120A84201DD471B00E0002735
:10081000A1697A1902EB0900081AA0612078C006C4
:1008200002D42046FFF7A5FF002608E0D4E9012105
:100830001AF806009047206A401C761C20624E453C
:10084000F4DB2078C0060AD52046FFF792FF06E0C9
:10085000D4E9012130209047206A401C2062381ED4
:10086000A7F10107F4DC07E0D4E9012118F805003D
:100870009047206A401C2062281EA5F10105F3DC88
:100880002046FFF78CFF2078000602D50220BDE845
:10089000F0870120FBE711680268006A530501D563
:1008A00008700AE0D30501D5088006E0130603D5D9
:1008B000C217C1E9000200E00860012070477047DC
:1008C0002DE9FF4F0C461E464FF0FF378BB0D2E9A3
:1008D0000001DDF860800A908A46C1F30A5505B927
:1008E0003D46002108464FF00000BAF1000F00F429
:1008F000400005DA00EB80004FF4400101EA5000AF
:100900004FEA9059B9F1010F00DDB9460A9850EA53
:100910004A000ED044F61050A5F2FF3545432F147F
:10092000B8F1000F1ED07542291E1EDDC9F100026C
:100930001CE0B8F1010F4FF0000001D0302103E0BE
:10094000F24305E02154401CB042FBDB304600225C
:10095000002121540B99C1F80880C1E900200FB093
:10096000BDE8F08FBD1B6D1CDEE74A4600DA694228
:1009700006A800F0B5FB06AB93E8070003AB83E8DD
:10098000070050460A9900F0B5FC8DE80700A0F575
:1009900000501F3800900398002D09DD42F21F011E
:1009A0004A46084403A90390684600F014FF08E093
:1009B000A0F500504A461F3803A90390684600F08E
:1009C0001EFF8DE807000004000C03D04FF0FF303D
:1009D000410800E01046B8F1000F03D00022009259
:1009E00015461EE0751E05D400F0DEFA3032625561
:1009F0006D1EF9D5B3460122084302D000227F1CA8
:100A000004E02078302801D100227F1E002A0997B7
:100A100086D01DE0112D07DA00F0C6FA303262559B
:100A20006D1C50EA0102F5D1084302D00098C8B10C
:100A30000EE00021681E05E0235C625C63542254D2
:100A4000401E491C8142F7DBAB46A81B401E0990A3
:100A5000002004F80B000B98099AC0F80880C0E940
:100A6000002B7CE711264FF0000859E72DE9F04FE5
:100A700088460446D21D22F0070191B0D1E9000159
:100A8000CDE90A0103F036FD02460B98C00F01D0F4
:100A90002D2007E02068810701D52B2002E02021CE
:100AA00001EAC000032A099001D0072A05DB0346AA
:100AB0004146204600F0BEFA0BE12078800601D5C1
:100AC000E06900E00620B8F1650F814606D0B8F174
:100AD000660F18D0B8F1670F70D131E00020B9F17E
:100AE000110F009001DB112301E009F101030AAAB3
:100AF00001A90CA8FFF7E4FEDDE90C70002609F15E
:100B00000105834647E001204B4600904FF0004727
:100B10000AAA01A90CA8FFF7D3FEDDE90DB00C99D4
:100B20005D46002610B909F101000D18B9EB05006A
:100B300003D4C0F1FF3609F10105A5EB09002BE054
:100B4000B9F1010F01DA4FF001090020B9F1110FDD
:100B50000090484601DD112300E003460AAA01A9DE
:100B60000CA8FFF7ADFEDDE90C704D46002683466C
:100B7000207800070AD4AB4500DA5D4601A8012DB4
:100B800004DD411911F8011C302907D04F4502DA64
:100B900017F1040F04DA012082460FE06D1EEEE724
:100BA000002F02DCED1B3E4403E0781CA84200DD70
:100BB0007D1CB81B00F1010A4FF0004720780007A8
:100BC00003D4AA4501DB4FF0FF3A0021B7F1004FF3
:100BD0000DF143088DF8431024D002202B23002F61
:100BE00001DA7F422D230A21021EA0F1010000DC60
:100BF0005FB197FBF1FC97FBF1F201FB1C7C174600
:100C00000CF1300C08F801CDEEE7A8F101000370FB
:100C10002188090501D5452100E06521A0F10108E1
:100C200000F8011C09980FA9A1EB0807FF1D00B1EE
:100C30000120411901EBEA70A1693844081A401EED
:100C4000A0612078C00602D42046FFF792FD0998E3
:100C500028B1D4E901219047206A401C2062207805
:100C6000C00622D52046FFF784FD1EE0002E04DBDF
:100C7000B34502DD01A8805D00E03020D4E9012108
:100C80009047206A401C2062761CAAF101005FEAAE
:100C9000000A0AD100F084F9C0680168405CD4E918
:100CA00001219047206A401C2062281EA5F1010501
:100CB000DCDC07E0D4E9012118F8010B9047206A39
:100CC000401C2062381EA7F10107F3DC2046FFF725
:100CD00066FD032011B043E601694A1C02610878F1
:100CE000704700B58FB0CDE901310021059105496C
:100CF0007944CDE9031011466846FFF779FB0FB040
:100D000000BD0000E5FFFFFF0A6802F8010B0A6062
:100D1000704710B5436913B1AFF3008001E0FFF7EE
:100D200001FB012010BD127800F124010A7000229D
:100D30004A700122EDE711684FF0FF32E9E7000049
:100D4000074B70B50D467B44FFF7CBFF04462846A2
:100D500000F034FA10B14FF0FF3070BD204670BD86
:100D6000EF3A00002DE9FF5F15468A460446DFF89A
:100D7000AC80F8440027D8E900103E46CDE90010C9
:100D800010E03AF816106A4602A800F01BFA411C5F
:100D900007D02178890603D5E269391891420DD828
:100DA0000744761C2078800602D5E069B84205DD4C
:100DB000AE42E6DB3AF816000028E2D1A069C01B7B
:100DC000A0612046FFF7D5FCD8E90010CDE900105E
:100DD000002017E03AF818106A4602A800F0F2F96D
:100DE000B0F1FF3F81460BD000250DF1080B05E067
:100DF000D4E901211BF8050090476D1C4D45F7D340
:100E000008F10100B0428046E4DB206A38442062E9
:100E10002046FFF7C4FCBDE8FF9F000012A80000B9
:100E20002DE9F0418046D21D22F007020025D2E9CB
:100E30000002F52915A614D0011E72F1000106DA90
:100E40000023D0EB030063EB020211A608E0D8F800
:100E500000108B0701D50FA602E0490701D50EA6A9
:100E600001251146002408F1240704E000F09CF855
:100E700030323A55641C50EA0102F7D12B46324613
:100E800021464046BDE8F041FFF7ACBC0000000041
:100E90002D0000002B0000002000000030B40021D5
:100EA00000F1240408E002F00705D208303542EAD8
:100EB0004372DB086554491C52EA0305F3D1046808
:100EC000002310A2250708D504F020040C4304D009
:100ED000C46901230CA2641EC46130BCFFF782BC4C
:100EE00010B5044621461068FFF773FC0246204601
:100EF000BDE810400023D1E7D21D22F00701D1E95F
:100F00000023CBE70000000030000000F0B40D46E5
:100F10000188090502D5214C7C4402E01F4C7C4429
:100F20000E34002100F1240608E002F00F07120938
:100F3000E75D42EA03721B097754491C52EA030732
:100F4000F3D102780023120704D5702D06D009B121
:100F5000022311342246F0BCFFF744BC01231034B5
:100F6000F8E770B504460D4621461068FFF731FCDE
:100F7000024629462046BDE870400023C6E7D21D40
:100F800022F00703D3E90023C0E70368126843F0A7
:100F9000200303600823C3610023B7E774A60000A1
:100FA00000487047C83A002030B5B0F10A024FEA55
:100FB000900E71F100034EEA817EB0EB0E0061EB02
:100FC00091014FEA101E4EEA017E10EB0E0041EB3C
:100FD00011114FEA102E4EEA016E10EB0E0041EB9C
:100FE00011214FEA104E4EEA014E10EB0E0041EB7C
:100FF0001141401841F100014FEAD00040EA417030
:101000004FEAD10110EB80054FEA810444EA907465
:1010100044EB01046D1944EB0404521BA3414FF04F
:10102000000348BF0A3200D530BD401C41F1000129
:1010300030BD00002DE9F0411F460446032601683B
:10104000072A01F4006004DB08B116A505E016A527
:1010500003E008B115A500E015A521F010002060FF
:10106000A069C01EA0610FB1401EA0612046FFF71D
:1010700080FB4FB1D4E9012138469047206A401CDB
:101080002062C01C206206E0206AFAE7D4E9012150
:1010900015F8010B9047761EF8D22046FFF77FFB2C
:1010A000BDE8F0814E414E006E616E00494E460033
:1010B000696E660010B5436913B1AFF3008001E0BB
:1010C000FFF750FE012010BD128800F12401828438
:1010D0000022C2840122EDE711684FF0FF32E9E7F8
:1010E0002DE9F047814616468AB0334878440DC84A
:1010F0008DE80D0030487844801C03AC0DC884E8AE
:101100000D0041F69B300844372190FBF1F290FB33
:10111000F1F5A5F1800501FB12041B3C02D56442E8
:10112000012000E00020DFF890A080460027FA446C
:10113000AAF1BE0A0DE0E00709D03246684607EB87
:1011400047010AEB810100F05AFB8DE807006410AB
:101150007F1C002CEFD1184F7F44AC3F18E0E8070C
:1011600014D007EB04100DF1180A90E80E008AE87D
:101170000E00C068F04201D198190890324606A9C5
:1011800003A800F03CFB03AB83E807006D10641C70
:10119000002DE4D132466946B8F1000F03A802D011
:1011A00000F019FB01E000F02AFBC9E90001C9F8D1
:1011B00008200AB0BDE8F08744A50000007B00F0DD
:1011C0008000704770B516460C46054600F044F89E
:1011D000036893F80101012806D0FF2C0FD8185D91
:1011E00068B101202C7070BDD3F80701324621464A
:1011F00003F2071303442846BDE8704018474FF038
:10120000FF3070BD00487047A83A00207546FFF7D0
:10121000F9FFAE4605006946534620F007008546B3
:1012200018B020B5FFF736F8BDE820404FF00006B3
:101230004FF000074FF000084FF0000B21F00701BE
:10124000AC46ACE8C009ACE8C009ACE8C009ACE801
:10125000C0098D467047000010B5FFF7A1FE001DC4
:1012600010BD00BF3D5C00000446AFF30080204687
:10127000FEF7FBFF4FF0013C50F8042B51F8043B04
:101280009A4221D1A2EB0C03934313EACC1317D15A
:1012900050F8042B51F8043B9A4215D1A2EB0C03F1
:1012A000934313EACC130BD150F8042B51F8043BB1
:1012B0009A4209D1A2EB0C03934313EACC13DBD07F
:1012C0004FF00000704700BFD01A01BAB1FA81F1A7
:1012D00001F0180122FA01F0CB40C1F12001DBB28C
:1012E000C0B2C01A2CFA01F3D11A914311EAC3110A
:1012F000E6D170475FEA400C08BF91F0000F4FEA5B
:101300008C234FEAC12243EA51514FEA1C5018BFC7
:1013100000F5F0404FEA300018BF41F000415FEAAD
:101320006C5C00F02980BCF1FF3F08BF40F08040BA
:101330007047130C06BF12044FF0100C4FF0000C56
:10134000130E04BF12020CF1080C130F04BF12019C
:101350000CF1040C930F04BF92000CF1020CD30F9C
:1013600004BF52000CF1010C11464FF00002A0F135
:101370001F00A0EB0C00704711F0004F08BF704732
:1013800031F000413FF4D5AF0B0C06BF09044FF01C
:10139000100C4FF0000C0B0E04BF09020CF1080CEE
:1013A0000B0F04BF09010CF1040C8B0F04BF890063
:1013B0000CF1020CCB0F04BF49000CF1010CCCF175
:1013C0002003A0EB0C0022FA03F302FA0CF241EA2C
:1013D000030100F10100704720F07F4C80EA030018
:1013E00023F07F47ACEB070303F57C5300F000408C
:1013F00003F1FF032DE980494FEA154B09B44FEA89
:10140000144325EA0B4E24EA03480FF2042606EBA8
:10141000132749083E785FEA320203FB0667C7F5E7
:10142000000707FB06F64FEA54374FEAD64606F1A7
:10143000020607FB066CCCF1005C4FEA1C472CEA65
:10144000074C07FB06F40CFB06F504EB15464FEAC8
:10145000961634BF00204FF000404FEAD13706FB0C
:1014600007FC4FEA1C4C0CFB0BF7D21B03FB0CF7E1
:1014700061EB07010CFB0EF7B0EB074072EB174274
:101480000CFB08F734BFA2EB0742B2EB074261EB5B
:1014900017414FEA0C444FEA910706FB07FC4FEA5D
:1014A0001C4C0CFB0BF7B0EBC74072EB573203FB45
:1014B0000CF734BFA2EBC742B2EBC74261EB573126
:1014C0000CFB0EF7B0EBC70072EB57720CFB08F782
:1014D00034BFA2EBC702B2EBC70261EB5771039FA7
:1014E0004FEA816141EA921104EBCC044FEAD13713
:1014F0004FEA826206FB07FC42EA90124FEA8060E4
:101500004FEA1C4C0CFB0BF7D21B03FB0CF761EBF7
:1015100007010CFB0EF7B0EB074072EB17420CFB18
:1015200008F734BFA2EB0742B2EB074261EB174169
:101530004FEA8C554FEA910704EB9C2406FB07FC0D
:101540004FEA1C4C0CFB0BF7B0EBC74072EB573269
:1015500003FB0CF734BFA2EBC742B2EBC74261EB0F
:1015600057310CFB0EF7B0EBC70072EB57720CFB58
:1015700008F734BFA2EBC702B2EBC70261EB5771A9
:1015800015EB4C254FEA816141EA92114FEA8262E4
:101590004FEAD13742EA901206FB07FC44F10004FF
:1015A0004FEA80604FEA1C4C0CFB0BF7D21B03FB8D
:1015B0000CF761EB07010CFB0EF7B0EB074072EB89
:1015C00017420CFB08F734BFA2EB0742B2EB07420D
:1015D00061EB174115EB1C154FEA813141EA92414D
:1015E0004FEA823242EA90424FEA80304FEA0C766C
:1015F00044F1000448EA03434EEA0B484FF0000E62
:10160000B2EB080C71EB030724BF624639464EEB80
:101610000E0E4FF0000B0018524149414BEB0B0BE3
:10162000B2EB080C71EB03077BF1000B24BF6246A1
:1016300039464EEB0E0E4FF0000B00185241494157
:101640004BEB0B0BB2EB080C71EB03077BF1000BC0
:1016500024BF624639464EEB0E0E51EA020718BF10
:1016600046F0010616EB0E7655F1000254F100012A
:1016700003D5BDE88901BDE80088BDE88901BDE862
:101680000048B619524141EB0101A3F10103704733
:1016900080807F7E7D7C7B7A7978777676757473AF
:1016A000727171706F6E6E6D6C6C6B6A6A6968686E
:1016B000676666656464636362616160605F5F5E04
:1016C0005E5D5D5C5C5B5B5A5A595958585757567A
:1016D00056555555545453535252525151505050DF
:1016E0004F4F4F4E4E4D4D4D4C4C4C4B4B4B4A4A31
:1016F0004A49494948484847474747464646454575
:1017000045444444444343434342424242414141AD
:10171000002B26D4770021D01CB54FEA370703B43D
:101720004FF010004FF010014FF000000FBCBDE86B
:1017300010400BF1010BBBF1010F08BF5FEA170767
:1017400022BF12F1010211F101014FF0004143F1FA
:10175000000300F0004043EA00007047F9D3570847
:10176000DAE746EA064613F1400F4FEA16461FDD58
:1017700013F1200FDFBF16430A46002120335B42DE
:10178000C8D0C3F1200746EA064602FA07F74FEA37
:10179000164646EA0706C3F1200722FA03F201FAC9
:1017A00007F721FA03F14FF0000342EA0702B1E71D
:1017B00046EA020646EA06464FEA164646EA0106A9
:1017C000BCBF46EA0646360C4FF000034FF000025D
:1017D0004FF000019EE72DE9C048934630B491E8F0
:1017E000380007C831EA400C48BF34EA430C03D53F
:1017F000FFF7F2FDFFF78CFFF0BCBDE800882DE994
:10180000C048934630B491E8380007C810F0804FC4
:1018100008BF13F0804F03D100F005F8FFF778FF01
:10182000F0BCBDE8008820F07F4780EA030023F089
:101830007F4C07EB0C03A3F57C5300F00040A3F1B1
:10184000FE0392F0000F00F0B38095F0000F00F05F
:1018500077802DE901494FEA11404FEA144621EA09
:10186000004800FB06FC24EA064708FB06F607FBD7
:1018700008F800FB07F718EB06484CEB164C4FEA4C
:10188000124B18EB07484FEA15464CEB174022EA7B
:101890000B4E0BFB06FC25EA06470EFB06F607FB84
:1018A0000EFE0BFB07F71EEB064E4CEB164C4FF0F3
:1018B00000061EEB074E4CEB174B18EB0B0840F1E4
:1018C000000018EB0E0B58EB000840F100008F1AD7
:1018D0004FF000013CBFC943661B14BFB5EB040CBD
:1018E00000213CBFC943F61B4FEA17444EEA8E0E57
:1018F00027EA04454FEA1C4704FB07622CEA074C21
:1019000005FB07F70CFB05F604FB0CFC16EB074682
:1019100042EB174216EB0C4642EB1C421BEB060651
:1019200058EB0202414146EA9E0601D5BDE8018915
:10193000B619524141EB0101A3F10103BDE8018950
:101940004FEA14454FEA114724EA054621EA074CBD
:1019500005FB07F406FB07F70CFB06F105FB0CFC87
:1019600011EB074144EB17444FEA124711EB0C41CE
:1019700044EB1C4422EA074C05FB07F206FB07F781
:101980000CFB06F605FB0CFC16EB074642EB174278
:1019900016EB0C4642EB1C456A1854F1000148BF97
:1019A0007047B619524141EB0101A3F101037047A1
:1019B00095F0000F37D04FEA11424FEA144721EA61
:1019C000024624EA074C02FB07F106FB07F70CFB73
:1019D00006F402FB0CFC14EB074441EB17414FEA01
:1019E000154714EB0C4441EB1C4125EA074C02FB64
:1019F00007F506FB07F70CFB06F602FB0CFC16EBE3
:101A0000074645EB174516EB0C4645EB1C421219F1
:101A100051F1000148BF7047B619524141EB010135
:101A2000A3F1010370474FEA14454FEA114724EA36
:101A3000054621EA074C05FB07F106FB07F70CFBFF
:101A400006F24FF0000605FB0CFC12EB074241EBDF
:101A5000174112EB0C4251EB1C4148BF70479218E2
:101A600041EB0101A3F10103704721B1826842F00B
:101A70000102826003E0826822F001028260704706
:101A800010B504461248844208D10121401501F0E6
:101A9000D9FB0021601501F0D5FB17E00D48844209
:101AA00008D10121001501F0CDFB0021201501F026
:101AB000C9FB0BE00848844208D10121C80301F0AA
:101AC000C1FB00214FF4004001F0BCFB10BD000041
:101AD0000024014000280140003C01400146002054
:101AE0008A6802F004020AB1012000E00020704779
:101AF0000146C86C80B270470246002013680B4054
:101B00000BB1012000E000207047014600208A68E8
:101B100002F008020AB1012000E000207047000036
:101B200030B502460020002350680F4C20400D794C
:101B30000C6844EA05242043506090680B4C204018
:101B4000D1E902542C434D7944EA45042043906086
:101B5000D06A20F470000C7C641EE4B2234340EA97
:101B60000350D06230BD0000FFFEF0FFFDF7F1FF33
:101B7000F0B504460D4600200021092D11DDE06876
:101B8000A5F10A0606EB4607072606FA07F1884381
:101B9000A5F10A0606EB460603FA06F10843E060E3
:101BA0000CE0206905EB4507072606FA07F1884394
:101BB00005EB450603FA06F108432061072A0FDA10
:101BC000606B561E06EB86071F2606FA07F1884350
:101BD000561E06EB860605FA06F10843606322E00E
:101BE0000D2A0FDA206BD61F06EB86071F2606FA92
:101BF00007F18843D61F06EB860605FA06F108436F
:101C0000206310E0E06AA2F10D0606EB86071F26AE
:101C100006FA07F18843A2F10D0606EB860605FADF
:101C200006F10843E062F0BD816841F0080181607F
:101C3000704721B1826842F4A002826003E08268AA
:101C400022F4A00282607047816841F00401816043
:101C50007047000000B587B001214FF4017001F01A
:101C6000E1FA4FF4004001F0B1FA0220ADF80400AF
:101C700000208DF8070001A92B4800F08FFA4020C2
:101C8000ADF8040000208DF8070001A9264800F0F7
:101C900085FA0120ADF8040000208DF8070001A9A5
:101CA000224800F07BFA8020ADF8040000208DF877
:101CB000070001A91C4800F071FA0420ADF80400E7
:101CC00000208DF8070001A9184800F067FA1848AD
:101CD000FFF7D6FE002002908DF80C008DF80D0065
:101CE0004FF4602004900020059005208DF8180026
:101CF00002A90F48FFF714FF01210D48FFF7B5FEB9
:101D00000B48FFF791FF00BF0948FFF7FEFE0028D0
:101D1000FAD10748FFF798FF00BF0548FFF7DEFE3E
:101D20000028FAD107B000BD0008014000100140B2
:101D30000024014010B5A2B0802200212E48FEF7F9
:101D4000C3FC2EA22FA12C48FEF7D6FA2A48FEF794
:101D500025FC36490860802200213548FEF7B4FC96
:101D600034A326A236A13248FEF7C6FA3048FEF761
:101D700015FC354908608022002102A8FEF7A4FC6A
:101D80002CA01EA31DA231A1009002A8FEF7B4FA58
:101D900002A8FEF703FC0446202035A33D4A214655
:101DA000009002A803F07AFA3A48FEF7F7FB3A49A6
:101DB0000860802200213948FEF786FC1DA238A168
:101DC0003648FEF799FA40F25B703F4908600846D2
:101DD000324902683DA003F099F9074940A003F099
:101DE00095F9134942A003F091F92A4944A003F060
:101DF0008DF922B010BD0000FC3200206661726DCA
:101E00000000000025737C7365637572656D6F64F7
:101E1000653D332C7369676E6D6574686F643D68EA
:101E20006D6163736861317C000000004400002034
:101E30007C330020613151795970456A6E56380003
:101E4000257326257300000048000020636C696537
:101E50006E74496425736465766963654E616D656A
:101E6000257370726F647563744B65792573000018
:101E70006361656433656361313565336439316548
:101E80006436616239613064376364303266666536
:101E900000000000FC3300204C0000207C340020B7
:101EA00025732E696F742D61732D6D7174742E639B
:101EB0006E2D7368616E676861692E616C697975F2
:101EC0006E63732E636F6D0050000020B7FE20CE4E
:101ED000F120C6F7A3BA25733A25640D0A00000065
:101EE000BFCDBBA7B6CB4944A3BA25730D0A0000EA
:101EF000D3C320BBA720C3FBA3BA25730D0A0000E0
:101F0000C3DC20202020C2EBA3BA25730D0A0000F9
:101F100008B50121082001F085F90120ADF8000085
:101F200010208DF8030003208DF802006946044854
:101F300000F034F90121024800F0C6F908BD0000A4
:101F4000000C01407047000070B505460C46224663
:101F5000294615480068801CFEF73FFB2046E11724
:101F600004EB1161090A104A12681170E11704EBC1
:101F700011610912A4EB01210B4A12685170002172
:101F800009480268A01C11540748006800F59670C3
:101F9000054908600846006804490968884202D17A
:101FA00003480149086070BD38000020400000204F
:101FB000202D002010B500241548006820F00F00E7
:101FC000134908600846006840F00800086004E013
:101FD000601CC4B2012002F02DFB0E48006808B15D
:101FE000642CF5DB642C01DB012010BD002404E02F
:101FF000601CC4B2012002F01DFB0648006808B94D
:10200000642CF5DB642C01DB0120EEE70020ECE71B
:10201000040801402001214208B50121042001F0FB
:1020200001F94FF48070ADF8000010208DF8030026
:1020300003208DF802006946064800F0AFF84FF41F
:102040008071044800F040F900F072F8FFF7B2FF29
:1020500008BD00000008014010B5002404E0601C29
:10206000C4B2012002F0E6FA0D48006808B1642C01
:10207000F5DB002404E0601CC4B2012002F0DAFAAF
:102080000748006808B9642CF5DB282002F0D2FA72
:102090000348006808B1012010BD0020FCE70000E3
:1020A0002001214270B50024002506E06006040EE0
:1020B000FFF7D2FF0443681CC5B2082DF6DB2046AB
:1020C00070BD2DE9FC4105460E461746984600F0C6
:1020D0002FF8FFF76FFF30BB002405E0FFF7E2FFAA
:1020E0000DF80400601CC4B2052CF7DB9DF800005D
:1020F0009DF8011008449DF8021008449DF8031053
:1021000008449DF80410884210D19DF80000287002
:102110009DF8010030709DF8020038709DF80300B2
:1021200088F8000002E00120BDE8FC810020FBE708
:1021300010B50C48006820F00F000A4908600846F6
:10214000006840F003000860002007490860142080
:1021500002F0F4F901200549C1F8A0011E2002F0A7
:1021600069FA10BD04080140A0012142000021428B
:102170007047000008B50121082001F053F8042041
:10218000ADF800008DF8030003208DF802006946C9
:10219000014800F003F808BD000C01402DE9F041B2
:1021A000024600250026002000230024002791F885
:1021B00003C00CF00F0591F803C00CF0100CBCF13B
:1021C000000F03D091F802C04CEA050591F800C059
:1021D000BCF1000F31D0146800202BE04FF0010C4F
:1021E0000CFA00F3B1F800C00CEA03069E4220D1BD
:1021F00083004FF00F0C0CFA03F7BC4305FA03FC05
:102200004CEA040491F803C0BCF1280F06D14FF04A
:10221000010C0CFA00FCC2F814C00AE091F803C0EB
:10222000BCF1480F05D14FF0010C0CFA00FCC2F8CC
:1022300010C0401C0828D1D31460B1F800C0BCF114
:10224000FF0F34DD546800202EE000F1080C4FF041
:10225000010808FA0CF3B1F800C00CEA03069E422C
:1022600021D183004FF00F0C0CFA03F7BC4305FAA1
:1022700003FC4CEA040491F803C0BCF1280F05D11B
:1022800000F1080C08FA0CF8C2F8148091F803C0A9
:10229000BCF1480F07D100F1080C4FF0010808FA13
:1022A0000CF8C2F81080401C0828CED35460BDE85A
:1022B000F0810246002093680B400BB1012000E042
:1022C0000020704741617047016170470AB10161A8
:1022D00000E041617047000010B504460723012269
:1022E00021460948FFF744FC01210748FFF7A1FCFC
:1022F00000BF02210448FFF7FFFB0028F9D0024885
:10230000FFF7F6FB10BD0000002401402DE9F0416D
:1023100007460C460025002608E03846FFF7DCFF9C
:102320000544052002F00AF9701CC6B2A642F4DB8F
:10233000B5FBF4F080B2BDE8F08170B5044600252D
:1023400021460A20FFF7E2FF0546B5F57A6F01D96D
:102350004FF47A652820B5FBF0F0C0F1640080B23C
:1023600070BD704710B520210B48FFF7ADFF4FF44B
:1023700080510A48FFF7A8FF00F042F820210648E4
:10238000FFF7A0FF00F03CF84FF480510348FFF73F
:1023900099FF00F035F810BD001401400020014005
:1023A00010B520210748FFF78DFF4FF480510648F4
:1023B000FFF78AFF00F024F820210248FFF784FF8E
:1023C00010BD0000001401400020014010B5202184
:1023D0000948FFF779FF00F013F84FF480510748E0
:1023E000FFF772FF00F00CF84FF480510348FFF73D
:1023F00069FF00F005F810BD001401400020014005
:10240000032000BF0100A0F10102D0B2FAD1704751
:1024100030B5C3B00A20FFF790FF0446214614A050
:1024200002F074FE01200C2102232246CDE90010A7
:1024300010213C2000F042FE00F0EEFC142C02DAE9
:1024400002F0A4FD01E002F083FD22460D4903A83D
:10245000FDF752FF03A8FEF7A1F805462A4603A997
:1024600009A000F0ADFA642002F068F843B030BD76
:10247000B9E2D5D5C7BFB6C8A3BA2564206C780D1C
:102480000A0000001CB700082F7379732F613151C7
:10249000795970456A6E56382F6661726D2F74686F
:1024A000696E672F6576656E742F70726F706572D6
:1024B00074792F706F7374002DE9F04FC1B00A2149
:1024C0000620FFF723FF044605F082F983465846AD
:1024D00005F002F880464FF066321E4B04F0C8FE4D
:1024E000064600221C4B04F02FFD044604F0EEFCCF
:1024F0008346584604F0F0FF044622460B4617A0D8
:1025000002F004FE642002F019F8584604F0E4FFDB
:1025100004464FF03332174B04F06EFE02D24FF0F8
:10252000000A01E04FF0010A5246134901A8FDF7E5
:10253000E3FE01A8FEF732F80446224601A90FA0E7
:1025400000F03EFA4FF4FA7001F0F8FF41B0BDE838
:10255000F08F000066660A4000FEAF40D1CCCEEDA1
:10256000B4ABB8D0C6F7B5E7D1B9A3BA252E326659
:10257000200D0A003333F33F4CB600082F737973F4
:102580002F613151795970456A6E56382F666172E4
:102590006D2F7468696E672F6576656E742F707223
:1025A0006F70657274792F706F73740010B5164870
:1025B000164908600846006815490860154816491C
:1025C0000860164816490860084600681549086002
:1025D00015481649086016481649086008460068FC
:1025E0001549086015481649086000F04BF80021AD
:1025F00014A000F05BFA00201F4908701F49087002
:102600001F49087010BD0000682100202000002034
:102610002400002018260020280000204427002045
:102620002C00002030000020F42B0020340000207B
:10263000202D0020380000203C000020D031002058
:10264000400000202F7379732F6131517959704503
:102650006A6E56382F6661726D2F7468696E672FC7
:10266000736572766963652F70726F7065727479C5
:102670002F736574000000006300002062000020DA
:102680006000002070B501207A4908600A207A496C
:1026900008607A480068001D794909680844801C70
:1026A00078490968084478490860734800680968EF
:1026B000441810207549087000BF2046E11704EB4C
:1026C0005161C911A4EBC115E11704EB5161CC11A3
:1026D000002C01DD45F080056C48664A126885547F
:1026E00064480068401C63490860002CE5DC002158
:1026F000664A60480068115404215E480068401C26
:1027000011544D215B480068801C115451215948D7
:102710000068C01C1154542156480068001D115413
:1027200054480068401D1154042152480068801D1F
:102730001154C2214F480068C01D115400214D485A
:1027400000680830115464214A4800680930115467
:102750004A490868C11700EB1161C1F307224B4BCE
:10276000444909680A315A5444490868C11700EBC2
:1027700011610912A0EB0121CAB23E4909680B316F
:102780005A541A463B4909680C3150183B490A68AB
:102790003F49FDF722FF3A490868C11700EB116174
:1027A000C1F30722334909680C31344B1B681944C3
:1027B000364B5A5432490868C11700EB11610912AF
:1027C000A0EB0121CAB22B4909680D312B4B1B68C4
:1027D00019442E4B5A54274909680E31274A12686A
:1027E00011441A46881826490A682A49FDF7F5FE59
:1027F00024490868C11700EB1161C1F307221D4984
:1028000009680E311D4B1B6819441D4B1B68194488
:102810001E4B5A541B490868C11700EB116109127D
:10282000A0EB0121CAB2134909680F31134B1B6891
:102830001944134B1B681944144B5A540D49096829
:1028400010310E4A126811440D4A126811441A469A
:1028500088180C490A681049FDF7BFFE0548006852
:10286000054A12681044084A12688118074801F0A6
:102870005DF970BD54000020580000204400002085
:10288000480000204C0000205C000020FC340020A8
:10289000FC3200207C330020FC3300202DE9F04F77
:1028A000D1B0804698F8011098F8000001EB0020A4
:1028B000509008F1020700208146054606468346EF
:1028C00001244FF0010A00BF0BF1010B00BF2819D2
:1028D00017F8009009F07F0000FB0A664FEACA1A59
:1028E000641C09F080000028F1D130190544311929
:1028F0005098401A50900124A24600265098002873
:10290000E2D1594620A002F001FC0020054606460F
:1029100000BF00BF4C9030E000BF281917F80090AE
:1029200009F07F0000FB0A664FEACA1A641C09F02E
:1029300080000028F1D1601C2844395C6019385CA3
:1029400001EB0020801C4F904F98301A4E902919AF
:102950004F9808444D904D98391801A84E9AFDF7AC
:102960003CFE01A84E99FFF7EFFA30190544012407
:10297000A24600264C98401C4C904C985845CBDB06
:1029800051B0BDE8F08F0000B1BEB4CEBDD3CAD502
:10299000C1CB2564B8F6CDC6CBCDCAFDBEDD0D0AD0
:1029A0000000000010B5C0200449087000204870E5
:1029B0000221024801F0BAF810BD0000FC340020EA
:1029C0002DE9F04705468846164601203349086040
:1029D0002846FDF7E3FD801C314908603148066058
:1029E000084600682F490968441830202E490870AD
:1029F00000BF2046E11704EB5161C911A4EBC117D8
:102A0000E11704EB5161CC11002C01DD47F0800788
:102A10002548224A1268875420480068401C1F49F4
:102A20000860002CE5DC2846FDF7B8FDC0F307215F
:102A30001D4A1A48006811542846FDF7AFFDC1B27F
:102A4000194A16480068401C11542846FDF7A6FD97
:102A50008146154A11490968891C50184A46294679
:102A6000FDF7BBFD2846FDF799FD0C490968891C57
:102A700008440D4900EB0109324641464846FDF73E
:102A8000ACFD06480068064A12681044054A126800
:102A90008118054801F04AF8BDE8F087540000208D
:102AA000580000205C000020FC34002070B5044673
:102AB0000D4602201F4908601F4908602046FDF7A7
:102AC0006DFDC01C1D49086082201D4908701A4810
:102AD00000781A490978084419494870002088701C
:102AE0000120C8702046FDF759FD000A14490871FD
:102AF0002046FDF753FD124948712046FDF74EFD73
:102B00000646324621460E48801DFDF766FD2046EA
:102B1000FDF744FD801D0A490D5406480068064A29
:102B200012681044054A12688118054800F0FEFF3B
:102B300070BD000054000020580000205C00002000
:102B4000FC3400207047704770B5002100230F222D
:102B5000C47804B3154C246804F4E064C4F5E0645C
:102B6000210AC1F10403CA40447804FA03F18478CD
:102B70001440214309010E4C0678A155047804F055
:102B80001F050124AC4005786D11AD0005F1E0256D
:102B9000C5F8004109E0047804F01F050124AC40A9
:102BA000044D0678761145F8264070BD0CED00E026
:102BB00000E400E080E100E002490143024A1160C4
:102BC000704700000000FA050CED00E070B500242D
:102BD0000CE0002506E00020074901EBC50108557F
:102BE000681CC5B2802DF6DB601CC4B2082CF0DB7B
:102BF00000F012F970BD00002836002010B5044620
:102C00001CB90021A62000F0C4FA012C03D1002138
:102C1000A72000F0BEFA10BD10B504463CB9002153
:102C2000C82000F0B6FA0021A12000F0B2FA012C71
:102C300007D10021C02000F0ACFA0021A02000F054
:102C4000A8FA10BDF0B514460B46CF1701EB577725
:102C5000C7F3C702CF1701EB5777FF10A1EBC707E8
:102C6000FEB20123B340DDB24CB1134B03EBC00302
:102C70009B5C2B43104F07EBC007BB541AE00E4B75
:102C800003EBC0039B5CDB430B4F07EBC007BB545C
:102C9000094B03EBC0039B5C2B43074F07EBC007BB
:102CA000BB54054B03EBC0039B5CDB43024F07EBBC
:102CB000C007BB54F0BD00002836002008B5012134
:102CC0004FF4907000F0AEFA4FF48050ADF8000071
:102CD00014208DF8030003208DF802006946464851
:102CE000FFF75CFA4FF480514348FFF7EDFA2020DC
:102CF000ADF8000014208DF8030003208DF80200C9
:102D000069463E48FFF74AFA20213C48FFF7DCFAC3
:102D10000021AE2000F03DFA0021084600F039FA0B
:102D20000021102000F035FA0021402000F031FA97
:102D30000021812000F02DFA0021CF2000F029FA97
:102D40000021A12000F025FA0021C82000F021FA7E
:102D50000021A62000F01DFA0021A82000F019FA99
:102D600000213F2000F015FA0021D32000F011FAD5
:102D70000021084600F00DFA0021D52000F009FAE4
:102D80000021802000F005FA0021D92000F001FA8E
:102D90000021F12000F0FDF90021DA2000F0F9F91E
:102DA0000021122000F0F5F90021DB2000F0F1F9FC
:102DB0000021402000F0EDF90021202000F0E9F989
:102DC0000021022000F0E5F900218D2000F0E1F95A
:102DD0000021142000F0DDF90021A42000F0D9F931
:102DE0000021A62000F0D5F9FFF7F0FE0021AF206A
:102DF00000F0CFF908BD00000020014000140140A0
:102E000010B50246012000E050430B00A1F101047F
:102E1000E1B2F9D110BD000070B500242BE004F13F
:102E2000B001C8B2002100F0B4F90021084600F05A
:102E3000B0F90021102000F0ACF9FFF793FA7820E8
:102E400000F07CFAFFF7C2FA402000F077FAFFF7B3
:102E5000BDFA002509E0094901EBC501085D00F054
:102E60006DFAFFF7B3FA681CC5B2802DF3DBFFF7EC
:102E700097FA601CC4B2082CD1DB70BD2836002044
:102E80002DE9FE4F0746884692461C460197CDF82D
:102E90000080082C02D14FF006091FE02046E317FE
:102EA00004EB5373DB1021464FEAE47C04EB5C7CBB
:102EB0004FEAEC0CA4EBCC0CBCF1000F02D04FF0AD
:102EC000010C01E04FF0000C6344224604EBD27C7D
:102ED0004FEA6C0C03FB0CF303F0FF09AAF120008E
:102EE000C6B200255EE0082C07D106EB46002F494C
:102EF00001EB400010F805B01DE00C2C07D106EBEB
:102F000046002B4901EB800010F805B013E0102CAF
:102F100005D1284800EB061010F805B00BE0182C7E
:102F200007D106EBC600244901EB800010F805B07C
:102F300001E0BDE8FE8F002002901CE00BF00100D4
:102F400028B1414638460C9AFFF77CFE09E00C9800
:102F500008B9012000E00020024641463846FFF74C
:102F600071FE4FEA6B0B08F1010000F0FF080298B8
:102F7000401CC0B2029002980828DFDB781CC7B260
:102F8000082C0BD004EBD4714A100199791A8A42AB
:102F900004D1019F00980830C0B20090DDF8008095
:102FA000681CC5B24D459EDB00BFC2E7E67A00084B
:102FB0000E7D000882810008728700082DE9FC4F11
:102FC0000746884616461C46BB46CDF80480204678
:102FD000E21704EB5272D2102146E31704EB53734D
:102FE000DB10A4EBC3030BB1012300E000231A4460
:102FF000624392B20092002553E00C2C05D12B487D
:1030000000EB861010F805A019E0102C05D1284817
:1030100000EB861010F805A011E0202C05D1254802
:1030200000EBC61010F805A009E0402C05D122489D
:1030300000EB462010F805A001E0BDE8FC8F4FF042
:1030400000091CE00AF0010028B1414638460B9AFD
:10305000FFF7F8FD09E00B9808B9012000E0002017
:10306000024641463846FFF7EDFD4FEA6A0A08F18D
:10307000010000F0FF0809F1010000F0FF09B9F1BB
:10308000080FDFDB781CC7B2A7EB0B00A04204D10E
:103090005F4601980830C0B20190DDF80480681CDA
:1030A00085B200988542A8DB00BFC6E736AB0008B2
:1030B000F69D0008769B0008F69B00082DE9FF4F5F
:1030C00082B0064691461F46DDE90F4A4FF0000BDD
:1030D000082C01D14FF0020B002530E0781B401E78
:1030E000C1B20A20FFF78CFEB9FBF0F00A21B0FB59
:1030F000F1F201FB1208B8F1000F0ED104EBD4710C
:103100000BEB610101FB0561C8B223463022CDE91A
:1031100000A40399FFF7B4FE0FE004EBD4710BEBAE
:10312000610101FB0561C8B208F13001CAB2234652
:10313000CDE900A40399FFF7A3FE681CC5B2BD4208
:10314000CCDB06B0BDE8F08F2DE9F84106460F460E
:1031500014461D46DDF81C8013E0CDF8008022786F
:103160002B4639463046FFF78BFE082D02D1B01DA5
:10317000C6B205E0284605EBD07106EB6101CEB280
:10318000641C2078202802DB20787E28E5DDBDE85D
:10319000F88170B505460C46FFF7E4F8782000F09A
:1031A000CDF8FFF713F91CB1402000F0C7F802E09A
:1031B000002000F0C3F8FFF709F9284600F0BEF838
:1031C000FFF704F9FFF7ECF870BD704701460020E7
:1031D000034A506820F440400843506070470000A4
:1031E0000010024029B1064AD2690243044BDA6159
:1031F00004E0034AD2698243014BDA617047000060
:103200000010024029B1064A12690243044B1A61B8
:1032100004E0034A12698243014B1A6170470000BF
:103220000010024029B1064A92690243044B9A6198
:1032300004E0034A92698243014B9A61704700009F
:103240000010024029B1064AD2680243044BDA60FA
:1032500004E0034AD2688243014BDA607047000001
:103260000010024030B500210022002400232D4D23
:103270006D6805F00C0121B1042905D0082923D17E
:1032800005E0294D056022E0274D05601FE0254D32
:103290006D6805F47012234D6D6805F480340225C5
:1032A00005EB92421CB9214D554305600BE01D4DC5
:1032B0006D6805F400351DB11C4D5543056002E0F5
:1032C000194D5543056002E0174D056000BF00BF72
:1032D000144D6D6805F0F0010909154D6B5C05682A
:1032E000DD4045600F4D6D6805F4E061090A104D41
:1032F0006B5C4568DD4085600A4D6D6805F4605182
:10330000C90A0B4D6B5C4568DD40C560054D6D68B5
:1033100005F44041890B074D6B5CC568B5FBF3F5BF
:10332000056130BD0010024000127A0000093D0026
:1033300000000020100000207047000070B5044617
:1033400000251DE004F0800020B120210E48FEF78A
:10335000BBFF03E020210C48FEF7B4FFFFF750F855
:103360004FF480510948FEF7AFFFFFF749F84FF4DB
:1033700080510648FEF7A6FF6006040E681CC5B221
:10338000082DDFDB70BD000000140140002001406B
:1033900010B500F001F810BD0CB5002001900090B0
:1033A0003348006840F480303149086000BF30483D
:1033B000006800F4003000900198401C01900098D3
:1033C00018B90198B0F5A06FF1D12948006800F450
:1033D000003010B10120009001E000200090009822
:1033E000012843D12348006840F0100021490860BB
:1033F0000846006820F0030008600846006840F0B6
:10340000020008601A484068194948600846406848
:1034100048600846406840F480604860084640685C
:1034200020F47C1048600846406840F4E81048608A
:103430000846006840F08070086000BF0C480068D3
:1034400000F000700028F9D00948406820F003001F
:10345000074948600846406840F00200486000BFE5
:103460000348406800F00C000828F9D10CBD0000AA
:103470000010024000200240042808D14FF0E02153
:10348000096941F004014FF0E022116107E04FF0BB
:10349000E021096921F004014FF0E0221161704739
:1034A0007047000010B51348006840F00100114952
:1034B000086008464068104908400E4948600846C0
:1034C00000680E4908400B4908600846006820F46F
:1034D000802008600846406820F4FE0048604FF4F1
:1034E0001F008860FFF754FF4FF000600449086038
:1034F00010BD0000001002400000FFF8FFFFF6FEC4
:1035000008ED00E01FB54FF4A060FFF755FB012167
:103510000846FFF767FE4FF0804000F0A5F94EF631
:103520005F20ADF8080041F61F40ADF80400002010
:10353000ADF80600ADF80A0001A94FF0804000F098
:10354000A3FA0121880700F07FF9012211469007B4
:1035500000F08FFA0121880700F079F91C208DF81E
:10356000000002208DF8010001208DF802008DF886
:1035700003006846FFF7E8FA1FBD10B50121880770
:1035800000F066FA88B1FEF743FF4FF4FA7000F0DE
:10359000D5FF01F039FD4FF4FA7000F0CFFFFEF7D0
:1035A0008BFF4FF4FA7000F0C9FF0121880700F08B
:1035B0004BF910BD1FB54FF4A060FFF7FDFA0121D4
:1035C0000220FFF70FFE184800F04EF944F61F6086
:1035D000ADF8080041F61F40ADF804000020ADF83A
:1035E0000600ADF80A0001A90F4800F04DFA0121CC
:1035F0000D4800F029F9012211460B4800F039FA74
:103600000121094800F023F91D208DF80000012058
:103610008DF8010000208DF8020001208DF80300D4
:103620006846FFF791FA1FBD000400401FB54FF434
:10363000A060FFF7C1FA01210220FFF7D3FD18486F
:1036400000F012F94EF65F20ADF8080048F69F40F2
:10365000ADF804000020ADF80600ADF80A0001A99D
:103660000F4800F011FA01210D4800F0EDF8012299
:1036700011460B4800F0FDF90121094800F0E7F878
:103680001D208DF8000002208DF8010001208DF82A
:1036900002008DF803006846FFF756FA1FBD0000D0
:1036A0000004004010B50121164800F0D1F938B3EC
:1036B00015480078062819D2DFE800F003060B0C45
:1036C0000D10FFF76FF911E0FFF774FFFFF76AF9CC
:1036D0000CE000BF00BFFFF765F907E000200B49D1
:1036E00008700021074800F0B2F800BF00BF06488C
:1036F0000078401C044908700121024800F0A4F839
:1037000010BD0000000400406000002061000020A7
:1037100010B501211D4800F09BF9002834D01C4849
:103720001C4902681C480068801CFCF756FF1848BA
:103730000088000A18490968087015480078164979
:10374000096848701448006800F5967012490860CE
:103750000846006811490968884202D110480E499C
:10376000086000200A49086000210E4800F08AF92C
:103770000021064800F06BF80021044800F082F9AF
:103780000121024800F060F810BD00000008004070
:1037900018000020680000202000002028000020E1
:1037A00068210020000400401FB54FF4A060FFF71F
:1037B00003FA01210820FFF715FD184800F054F81E
:1037C0004CF24F30ADF808004EF2FF00ADF80400A7
:1037D0000020ADF80600ADF80A0001A90F4800F07E
:1037E00053F901210D4800F02FF8012211460B4832
:1037F00000F03FF90121094800F029F832208DF846
:10380000000002208DF801008DF8020001208DF8E3
:1038100003006846FFF798F91FBD0000000C004048
:1038200010B50121074800F013F930B100F024FF72
:10383000642000F083FE01F02BFB0121014800F021
:1038400003F810BD000C0040CA430282704721B14A
:10385000028842F00102028004E002884FF6FE7303
:103860001A4002807047000010B504466848844240
:1038700008D10121C014FFF7E5FC0021E014FFF797
:10388000E1FCC4E0B4F1804F08D101210846FFF704
:10389000B9FC00210120FFF7B5FCB8E05D48844287
:1038A00008D101210220FFF7ADFC00210220FFF723
:1038B000A9FCACE05848844208D101210420FFF75C
:1038C000A1FC00210420FFF79DFCA0E053488442A6
:1038D00008D101210820FFF795FC00210820FFF7FF
:1038E00091FC94E04E48844208D101211020FFF75A
:1038F00089FC00211020FFF785FC88E049488442BC
:1039000008D101212020FFF77DFC00212020FFF7B6
:1039100079FC7CE04448844208D101214014FFF73F
:1039200091FC00216014FFF78DFC70E03F48844259
:1039300009D10121C804FFF785FC00214FF40020C4
:10394000FFF780FC63E03A48844209D10121080571
:10395000FFF778FC00214FF48010FFF773FC56E06E
:103960003448844209D101214805FFF76BFC00214E
:103970004FF40010FFF766FC49E02F48844208D15D
:1039800001214020FFF73EFC00214020FFF73AFCD8
:103990003DE02A48844208D101218020FFF732FC13
:1039A00000218020FFF72EFC31E02548844208D119
:1039B00001218015FFF726FC0021A015FFF722FC4E
:1039C00025E02048844209D101210804FFF73AFC90
:1039D00000214FF48030FFF735FC18E01A4884428C
:1039E00009D101214804FFF72DFC00214FF40030DC
:1039F000FFF728FC0BE01548844208D10121880418
:103A0000FFF720FC00214FF48020FFF71BFC10BDC6
:103A1000002C01400004004000080040000C004061
:103A2000001000400014004000340140004C0140F0
:103A3000005001400054014000180040001C0040AC
:103A40000020004000400140004401400048014087
:103A500030B50246002000230024158A05EA010340
:103A6000958905EA010413B10CB1012000E00020A2
:103A700030BD1AB183890B43838102E083898B4374
:103A80008381704781847047002202881D4B9842D1
:103A90000ED01D4B98420BD0B0F1804F08D01B4B7D
:103AA000984205D01A4B984202D01A4B984204D142
:103AB0004FF68F731A404B881A43174B984207D022
:103AC000164B984204D04FF6FF431A40CB881A4356
:103AD00002808B8883850B8803850A4B98420BD024
:103AE000094B984208D00E4B984205D00D4B984296
:103AF00002D00D4B984201D10B7A038601238382B9
:103B000070470000002C01400034014000040040D8
:103B100000080040000C004000100040001400406D
:103B200000400140004401400048014070B5054696
:103B30000C462246294613480068801CFCF74DFDC0
:103B40002046E11704EB1161090A0E4A1268117050
:103B5000E11704EB11610912A4EB0121094A126873
:103B600051700848006800F59670064908600846DC
:103B7000006805490968884202D104480149086083
:103B800070BD00002C0000203400002044270020DD
:103B900010B540F22551184800F09CF858B317486A
:103BA000007880B91448001D008820B31248001D19
:103BB00000881349134A1268885412480068401C50
:103BC0001049086017E00C48001D00880C490D4A98
:103BD000126888540B48006820B901210A48FFF791
:103BE00036FE03E000210848FFF74CFF0548006857
:103BF000401C0449086010BD0044004061000020E2
:103C000068000020180000200008004001F4007245
:103C1000B2F5007F00D100BFCA430280704721B1D6
:103C2000828942F40052828104E082894DF6FF735A
:103C30001A4082817047000010B504462048844233
:103C400009D101218803FFF7FDFA00214FF48040DC
:103C5000FFF7F8FA32E01B48844209D101214804F9
:103C6000FFF7D0FA00214FF40030FFF7CBFA25E040
:103C70001548844209D101218804FFF7C3FA0021C5
:103C80004FF48020FFF7BEFA18E01048844209D1B3
:103C90000121C804FFF7B6FA00214FF40020FFF716
:103CA000B1FA0BE00A48844208D101210805FFF768
:103CB000A9FA00214FF48010FFF7A4FA10BD00000C
:103CC000003801400044004000480040004C0040E3
:103CD0000050004070B5024600240023002500205B
:103CE00040F66A16B14200D100BFC1F3421501F09F
:103CF0001F03012606FA03F3012D02D196893340F2
:103D000006E0022D02D1168A334001E0968A334044
:103D10000C12012606FA04F41688344013B10CB1D3
:103D2000012000E0002070BDF0B50346002400260D
:103D30000025002040F66A17B94200D100BF18469E
:103D4000C1F3421401F01F06012707FA06F5012C02
:103D500001D10C3004E0022C01D1103000E014300D
:103D60001AB107682F43076002E00768AF43076096
:103D7000F0BD00002DE9F04786B005460E46002450
:103D8000A24600BFA1460027B08900B100BF2F4660
:103D90002C8A4CF6FF700440F08804432C82AC89D6
:103DA0004EF6F3100440B088318908437189084306
:103DB0000443AC81AC8A4FF6FF400440B089044311
:103DC000AC8201A8FFF74EFA1F48874202D1DDF806
:103DD00010A001E0DDF80CA0A88900F4004040B17B
:103DE0000AEBCA0000EB0A1031684900B0FBF1F899
:103DF00007E00AEBCA0000EB0A1031688900B0FB4B
:103E0000F1F86420B8FBF0F004012009642101FB03
:103E10001089A88900F4004040B1322000EBC900AD
:103E2000B0FBF1F000F00700044308E0322000EBA3
:103E300009106421B0FBF1F000F00F0004432C8165
:103E400006B0BDE8F0870000003801407047000070
:103E500010B586B004464FF4A060FEF7ADFE012118
:103E60004804FFF7BFF901210420FFF7DBF92448DC
:103E7000FFF7E2FE0420ADF8140003208DF81600D1
:103E800018208DF8170005A91E48FEF787F90820AD
:103E9000ADF8140004208DF8170005A91948FEF7A5
:103EA0007DF901940020ADF80800ADF80A00ADF8E6
:103EB0000C00ADF810000C20ADF80E0001A9104860
:103EC000FFF758FF20210E48FFF7A0FE012240F225
:103ED00025510B48FFF728FF26208DF80000002011
:103EE0008DF801008DF8020001208DF8030068466E
:103EF000FEF72AFE01210248FFF791FE06B010BD31
:103F0000004400400008014008B501210820FFF7E7
:103F100089F90220ADF8000004208DF80300032089
:103F20008DF8020069460248FEF738F908BD000026
:103F3000000C014010B537A0FCF7D2F9322000F098
:103F400061FA20B137A0FCF7CBF9012010BD3BA0EE
:103F5000FCF7C6F93CA0FCF7C3F932213FA000F002
:103F60008FFA20B140A0FCF7BBF90220EEE745A094
:103F7000FCF7B6F948A0FCF7B3F932214BA000F0EA
:103F80007FFA20B14DA0FCF7ABF90320DEE753A088
:103F9000FCF7A6F956A0FCF7A3F91E2000F0E6F9FD
:103FA00020B158A0FCF79CF90420CFE75CA0FCF7F7
:103FB00097F960A0FCF794F9322162A000F060FA52
:103FC00020B164A0FCF78CF90820BFE768A0FCF7DB
:103FD00087F96BA0FCF784F932216EA000F050FA4B
:103FE00020B16FA0FCF77CF90920AFE774A0FCF7C3
:103FF00077F978A0FCF774F9642000F00DF920B18E
:1040000079A0FCF76DF90A20A0E77EA0FCF768F91B
:1040100000209BE7D7BCB1B8B8B4CEBBC4A3BFE9FE
:104020000D0A0000B8B4CEBBCAA7B0DCA3ACD7BCA5
:10403000B1B8D6D8C6F40D0A00000000B8B4CEBBA3
:10404000B3C9B9A60D0A0000D7BCB1B8C9E8D6C338
:10405000535441C4A3CABD0D0A00000041542B4370
:10406000574D4F44453D3100C9E8D6C3535441C470
:10407000A3CABDCAA7B0DCA3ACD7BCB1B8D6D8C65A
:10408000F40D0A00C9E8D6C3535441C4A3CABDB352
:10409000C9B9A60D0A000000D7BCB1B8C8A1CFFBB2
:1040A000D7D4B6AFC1ACBDD30D0A000041542B43E9
:1040B000574155544F434F4E4E3D3000C8A1CFFBA2
:1040C000D7D4B6AFC1ACBDD3CAA7B0DCA3ACD7BC04
:1040D000B1B8D6D8C6F40D0A00000000C8A1CFFBC5
:1040E000D7D4B6AFC1ACBDD3B3C9B9A60D0A0000D1
:1040F000D7BCB1B8C1ACBDD3C2B7D3C9C6F70D0ADE
:1041000000000000C1ACBDD3C2B7D3C9C6F7CAA76F
:10411000B0DCA3ACD7BCB1B8D6D8C6F40D0A000049
:10412000C1ACBDD3C2B7D3C9C6F7B3C9B9A60D0ACE
:1041300000000000D7BCB1B8C9E8D6C3CDB8B4AB55
:104140000D0A000041542B4349504D4F44453D3129
:1041500000000000C9E8D6C3CDB8B4ABCAA7B0DC34
:10416000A3ACD7BCB1B8D6D8C6F40D0A0000000085
:10417000C9E8D6C3CDB8B4ABB3C9B9A60D0A00001F
:10418000D7BCB1B8B9D8B1D5B6E0C2B7C1ACBDD310
:104190000D0A000041542B4349504D55583D300005
:1041A000B9D8B1D5B6E0C2B7C1ACBDD3CAA7B0DCEF
:1041B000A3ACD7BCB1B8D6D8C6F40D0A0000000035
:1041C000B9D8B1D5B6E0C2B7C1ACBDD3B3C9B9A6F1
:1041D0000D0A0000D7BCB1B8C1ACBDD3B7FECEF15B
:1041E000C6F70D0A00000000C1ACBDD3B7FECEF18A
:1041F000C6F7CAA7B0DCA3ACD7BCB1B8D6D8C6F452
:104200000D0A0000C1ACBDD3B7FECEF1C6F7B3C9ED
:10421000B9A60D0A0000000010B5044600202E4982
:1042200008604FF480512D48FCF756FA2C482D4970
:1042300002682DA000F0B8FF1AE0642000F07EF9BB
:1042400030A12648FCF798F900B115E02FA12348CA
:10425000FCF792F908B1012010BD2EA11F48FCF710
:104260008BF908B10220F7E721462FA0FCF738F8B8
:104270002000A4F10104E0D100BF2CA0FCF730F82D
:10428000002C01DC0320E7E729A0FCF729F8002037
:10429000114908604FF480511048FCF71DFA2CA01A
:1042A00000F082FF0CE0642000F048F92CA10B48DC
:1042B000FCF762F900B107E021461BA0FCF710F8FB
:1042C0002000A4F10104EED100BF002C01DC042089
:1042D000C2E70020C0E700001800002068000020AE
:1042E000500000207C34002041542B43495053544B
:1042F0004152543D22544350222C222573222C2516
:10430000640D0A00434F4E4E45435400434C4F53F7
:1043100045440000414C524541445920434F4E4EC4
:104320004543544544000000256420000D0A000068
:10433000C1ACBDD3B7FECEF1C6F7B3C9B9A6A3AC25
:10434000D7BCB1B8BDF8C8EBCDB8B4AB0D0A00000E
:1043500041542B43495053454E440D0A0000000080
:104360000D0A4F4B0D0A0D0A3E00000010B5044621
:104370000020144908604FF480511348FCF7ACF951
:1043800012A215A116A000F00FFF0DE04FF47A70F5
:1043900000F0D4F818A10C48FCF7EEF800B107E0E3
:1043A000214616A0FBF79CFF2000A4F10104EDD1EB
:1043B00000BF13A0FBF794FF002C01DC012010BD0F
:1043C0000020FCE718000020680000203032303464
:1043D000313331300000000073616B757261000091
:1043E00041542B43574A41503D222573222C22250C
:1043F00073220D0A000000004F4B000025642000CE
:104400000D0A000010B50446002210211648FDF7E1
:104410005DFF4FF4FA7000F091F80122102112486C
:10442000FDF754FF4FF4FA7000F088F80DE04FF4F8
:104430007A7000F083F80DA10E48FCF79DF800B1EA
:1044400007E021460CA0FBF74BFF2000A4F101047C
:10445000EDD100BF09A0FBF743FF002C01DC0120D8
:1044600010BD0020FCE70000000801407265616497
:104470007900000068000020256420000D0A00007B
:1044800070B505460C460020134908604FF4805172
:104490001248FCF721F9294611A000F085FE0CE036
:1044A000642000F04BF810A10C48FCF765F800B14F
:1044B00007E021460DA0FBF713FF2000A4F1010443
:1044C000EED100BF0AA0FBF70BFF002C01DC01209E
:1044D00070BD0020FCE700001800002068000020EC
:1044E00025730D0A000000004F4B000025642000DA
:1044F0000D0A0000490050EAC12018BF04204A0DEF
:1045000018BF40F0010040F2FF72B2EB515F08BFEC
:1045100040F00200012808BF0520704730380A2803
:1045200001D2012070470020704700BF704710B5CE
:104530006FF00400FEF7A0FF10BD000010B50146AB
:10454000B1F5E16F22D201EBC1034FF47A746343FA
:104550004FF0E02463610023A36123461B6943F00D
:104560000103236100BF4FF0E023186900F001034D
:104570001BB100F48033002BF5D04FF0E0231B6912
:1045800023F001034FF0E02423614FE000221FE0FD
:10459000274B4FF0E02463610023A36123461B698E
:1045A00043F00103236100BF4FF0E023186900F0DE
:1045B00001031BB100F48033002BF5D04FF0E02352
:1045C0001B6923F001034FF0E0242361531CDAB28E
:1045D0004FF4E163B1FBF3F39342D9D84FF4E163B5
:1045E000B1FBF3F403FB141303EBC3034FF47A742E
:1045F00063434FF0E02463610023A36123461B69FA
:1046000043F00103236100BF4FF0E023186900F07D
:1046100001031BB100F48033002BF5D04FF0E023F1
:104620001B6923F001034FF0E024236110BD00005B
:104630004031F700014601EBC1024FF0E0235A611F
:1046400000229A611A46126942F001021A6100BF03
:104650004FF0E022106900F001021AB100F480323C
:10466000002AF5D04FF0E022126922F001024FF04B
:10467000E0231A61704700002DE9F041ADF5067D99
:1046800082AB83AA84A985A8FDF71BFD6420FFF7F0
:1046900055FF9DF8100203F09BF880464F4902F049
:1046A000B5FF06469DF8140203F092F8074631461E
:1046B00002F03EFF04469DF8080203F089F88046A8
:1046C000464902F0A3FF06469DF80C0203F080F86D
:1046D0000746314602F02CFF0546204602F0FCFE5C
:1046E000064632460B463EA000F010FD284602F07A
:1046F000F3FE064632460B463DA000F007FD284675
:1047000002F0EAFE064600223C4B02F0AFFE02D267
:1047100000F032FC01E000F011FC01200C2102232A
:10472000CDE900109DF80C222C212320FEF7C6FCB9
:1047300001200C210223CDE900109DF808222C2134
:104740003420FEF7BBFC01200C210223CDE9001030
:104750009DF8142200212320FEF7B0FC01200C213B
:104760000223CDE900109DF8102200213420FEF72D
:10477000A5FC6420FFF7E2FEFEF74EFB204602F0A8
:10478000ABFE064632460B461D4942A8FBF7B4FD78
:1047900042A8FBF703FF0646324642A919A0FEF7DE
:1047A0000FF96420FFF7CAFE284602F095FE064680
:1047B00032460B461F4902A8FBF79EFD02A8FBF7F5
:1047C000EDFE0646324602A90EA0FEF7F9F8642077
:1047D000FFF7B4FE0DF5067DBDE8F0810000204135
:1047E000CAAAB6C8A3BA252E32660D0A0000000078
:1047F000CEC2B6C8A3BA2566200D0A000000344018
:1048000058B800082F7379732F6131517959704569
:104810006A6E56382F6661726D2F7468696E672FE5
:104820006576656E742F70726F70657274792F7013
:104830006F737400ECB7000800BF054A128802F0DD
:104840004002002AF9D0C2B2014B1B1D1A807047EA
:104850000038014008B501211020FEF7E3FC4FF4B9
:104860006050ADF8000003208DF8020010208DF894
:10487000030069460148FDF791FC08BD00100140A6
:1048800008B5FDF7C9FB4FF4E13000F0BBFCFDA01B
:1048900000F03CFC4FF4E130FFF7DAFAFFF734FBAD
:1048A000FDF736FBFDF766FC4FF4E1514FF4FA706B
:1048B00000F076FBFFF7CEFFFDF7CCF9FFF737FEF0
:1048C00002F0BEFAFDF736FAFEF7F8F9FFF71CFB27
:1048D0000020FEF793F90020FEF79EF9FEF776F927
:1048E00001200C231B22102100900020FEF766FB04
:1048F00001200C231C22102100901846FEF75EFBBD
:1049000001200C231D22102100901820FEF756FBD9
:1049100001200C231E22102100902420FEF74EFBC4
:1049200001200C23DCA2102100903220FEF70CFCA9
:1049300001200C23D9A2102100905020FEF704FC86
:1049400001200C2321221E2100900020FEF736FBBF
:1049500001200C2322221E2100901846FEF72EFB78
:1049600001200C2323221E2100901820FEF726FB95
:1049700001200C2324221E2100901046FEF71EFB6E
:1049800001200C23C4A21E2100903220FEF7DCFB84
:1049900001200C23C2A21E2100905020FEF7D4FB60
:1049A00001200C231F222C2100900020FEF706FB83
:1049B00001200C2320222C2100901846FEF7FEFA3D
:1049C00001200C23B4A22C2100901920FEF7BCFB7F
:1049D00001200C23B3A22C2100902F20FEF7B4FB62
:1049E00001200C2325222C2100904120FEF7E6FA1D
:1049F00001200C232622002100900846FEF7DEFA53
:104A000001200C232722002100901846FEF7D6FA39
:104A100001200C23A0A2002100901920FEF794FB96
:104A200001200C239FA2002100902F20FEF78CFB79
:104A300001200C239AA2002100904120FEF784FB64
:104A4000FEF7EAF922E298480078012872D19748E7
:104A500000689749096888422AD09448006880789D
:104A600010280CD0914800688078822803D19148A2
:104A70000078012803D090480078012818D18B488D
:104A8000006881788DA000F041FB8848006800F044
:104A90006BFB8648006800F59670844908600846FC
:104AA00000688A490968884202D189487F490860BC
:104AB000884800688849096888427DD087A000F04E
:104AC00025FB84480068807820283CD18148006814
:104AD000407906282FD2DFE800F0030A11181F26BC
:104AE00068A000F013FB0120724908702AE07EA044
:104AF00000F00CFB00206C49087023E085A000F05A
:104B000005FB0020684908701CE08EA000F0FEFA4A
:104B100000206549087015E094A000F0F7FA002025
:104B2000614908700EE09CA000F0F0FA00205E4998
:104B3000087007E082E0A0A000F0E8FA00205A49DF
:104B4000087000BF4FE0634800688078902823D148
:104B500060480068807910B1012815D100E000BFDD
:104B60009EA000F0D3FA01205349087000209E490E
:104B70000870FEF75BFDFEF7C5FCFEF715FEFDF7BE
:104B800047FC00F041FA06E098A000F0BFFA0020D0
:104B90004549087000BF26E04E4800688078D0285C
:104BA00015D198A000F0B2FA8F480078012804D1FE
:104BB00000208D49087016E024E08B480078012819
:104BC00011DD002088490870FEF730FD0BE04148F8
:104BD00000688078302806D18EA000F097FA3D4812
:104BE0000068FDF75BFE3B48006800F596703949A8
:104BF0000860084600688C490968884202D18B48E1
:104C0000344908608A4800688A490968884214D093
:104C100087480168891C88A000F078FA84480068F9
:104C200000F5967082490860084600688549096861
:104C3000884202D184487E49086027E183A000F0C1
:104C400065FA00218648FEF702FE00218548FEF73E
:104C5000FEFD0020844908604FF480518348FBF733
:104C60003BFDFFF767F960B981A000F04FFA012022
:104C70000D49087000207C4908604FF480517B4842
:104C800000E103E1434F4E4E454354B1A8CEC4B3B7
:104C9000C9B9A60D0A0000003A0000006C780000B7
:104CA000524800002E00000061000020300000206B
:104CB0002C0000206200002063000020B7A2CBCDB2
:104CC000CAFDBEDD3A307825780D0A003400002098
:104CD000442700202400002020000020BDD3CAD596
:104CE000B5BDCAFDBEDD3A00C1ACBDD3D2D1BEDC7C
:104CF000BEF8A3ACB2BBD6A7B3D6B5C4D0ADD2E98B
:104D0000B0E6B1BEA3ACD7BCB1B8D6D8C6F40D0AD4
:104D100000000000C1ACBDD3D2D1BEDCBEF8A3AC54
:104D2000B2BBBACFB8F1B5C4BFCDBBA7B6CBB1EA61
:104D3000CAB6B7FBA3ACD7BCB1B8D6D8C6F40D0A77
:104D400000000000C1ACBDD3D2D1BEDCBEF8A3AC24
:104D5000B7FECEF1B6CBB2BBBFC9D3C3A3ACD7BCF1
:104D6000B1B8D6D8C6F40D0A00000000C1ACBDD35E
:104D7000D2D1BEDCBEF8A3ACCEDED0A7B5C4D3C3BF
:104D8000BBA7C3FBBBF2C3DCC2EBA3ACD7BCB1B8BF
:104D9000D6D8C6F40D0A0000C1ACBDD3D2D1BEDC5A
:104DA000BEF8A3ACCEB4CADAC8A8A3ACD7BCB1B81D
:104DB000D6D8C6F40D0A0000C1ACBDD3D2D1BEDC3A
:104DC000BEF8A3ACCEB4D6AAD7B4CCACA3ACD7BCF7
:104DD000B1B8D6D8C6F40D0A00000000B6A9D4C4F4
:104DE000B3C9B9A60D0A000060000020B6A9D4C45A
:104DF000CAA7B0DCA3ACD7BCB1B8D6D8C6F40D0AEC
:104E00000000000050494E47B1A8CEC4BBD8B8B48A
:104E10000D0A0000B7FECEF1C6F7B5C8BCB630CD5E
:104E2000C6CBCD0D0A00000028000020682100201C
:104E30003C00002038000020C3FCC1EE3A25730D71
:104E40000A00000040000020202D0020D0E8D2AA57
:104E5000C1ACBDD3B7FECEF1C6F70D0A000000000D
:104E600000080040000400401800002068000020F6
:104E7000BDA8C1A2544350C1ACBDD3B3C9B9A60D9E
:104E80000A000000FBF728FCFDF790FBDBE50000C3
:104E900030B5C1B002211448FDF70BFA90B90124D6
:104EA00012A000F033F92246124901A8FBF724FAB8
:104EB00001A8FBF773FB05462A4601A90EA0FDF7E2
:104EC0007FFD0EE0002422460A4901A8FBF714FAF0
:104ED00001A8FBF763FB05462A4601A906A0FDF7DA
:104EE0006FFD41B030BD0000000C0140CFC2D3EADD
:104EF000C1CB0000BCB600082F7379732F6131510C
:104F0000795970456A6E56382F6661726D2F7468D4
:104F1000696E672F6576656E742F70726F7065723B
:104F200074792F706F73740010B54FF400510248FC
:104F3000FDF7C8F910BD00000010014010B54FF496
:104F400080510248FDF7BEF910BD0000001001407D
:104F500010B54FF400610248FDF7B4F910BD000030
:104F60000010014010B54FF400510248FDF7ACF9B4
:104F700010BD00000010014010B54FF480510248F0
:104F8000FDF7A2F910BD00000010014010B54FF46C
:104F900000610248FDF798F910BD000000100140C3
:104FA0007FB505460C4601210420FEF71BF9ADF83C
:104FB0000850ADF804400020ADF80600ADF80A0036
:104FC00001A91048FEF760FD01210E48FEF73CFCE8
:104FD000012211460B48FEF74CFD00210948FEF75F
:104FE00036FC1E208DF8000006208DF80100002000
:104FF0008DF8020001208DF803006846FDF7A4FD3E
:105000007FBD00000008004070B5C2B00A21012039
:10501000FDF77CF9054602F0DBFB044621462548F6
:1050200002F0EAFC0646244902F0F0FA054623495C
:1050300002F016FC0446204602F04EFA05462A46C7
:105040000B461FA000F062F8204602F0A1FB0546C7
:1050500001200C2102232A46CDE900101E213C200C
:10506000FEF72CF86420FFF769FAFDF7D5FE194921
:10507000204602F0C1FB02D2FFF774FF01E0FFF708
:1050800053FF204602F028FA05462A460B461249ED
:1050900002A8FBF731F902A8FBF780FA05462A4679
:1050A00002A90EA0FDF78CFC6420FFF747FA42B07E
:1050B00070BD000000C07F4500C04D450000C842E3
:1050C000CDC1C8C0CAAAB6C8A3BA252E326620254B
:1050D0000D0A00000000204280B700082F7379738A
:1050E0002F613151795970456A6E56382F66617259
:1050F0006D2F7468696E672F6576656E742F707298
:105100006F70657274792F706F7374000FB438B557
:1051100005A800901248009A0499FBF7CFF80020E8
:1051200000900F48FBF73AFA054600BF0D4800888B
:1051300000F040000028F9D000240CE00848005D91
:105140000849091D088000BF0648008800F040009B
:105150000028F9D0641CAC42F0D338BC5DF814FBD5
:10516000682000200038014000BF0E4A128802F07B
:105170004002002AF9D001210CE04A1C825C094B54
:105180001B1D1A8000BF074A128802F04002002A45
:10519000F9D0491C4378027803EB02228A42ECDA08
:1051A00070470000004400400FB438B505A80090D7
:1051B0001248009A0499FBF781F8002000900F48EC
:1051C000FBF7ECF9054600BF0D48008800F04000F1
:1051D0000028F9D000240CE00848005D0849091DAA
:1051E000088000BF0648008800F040000028F9D081
:1051F000641CAC42F0D338BC5DF814FB681000208E
:105200000044004010B586B0044601218803FEF733
:1052100009F801210420FEF705F84FF40070ADF8FD
:10522000140003208DF8160018208DF8170005A92A
:105230001248FCF7B3FF4FF48060ADF8140004206F
:105240008DF8170005A90D48FCF7A8FF0194002070
:10525000ADF80800ADF80A00ADF80C00ADF810008C
:105260000820ADF80E0001A90548FEF783FD0121D5
:105270000348FEF7D4FC06B010BD00000008014052
:1052800000380140014601F00F010A2902DA01F15C
:10529000300001E001F1570040B270472DE9F043C2
:1052A000BDB00646884615461F46DDF810910EB182
:1052B00005B117B93DB0BDE8F083B9F1400F00DD8D
:1052C000F8E7402116A8FBF729FA402106A8FBF7CA
:1052D00025FA4A46394616A8FBF77FF94A46394669
:1052E00006A8FBF77AF900240CE016A8005D80F010
:1052F000360016A9085506A8005D80F05C0006A9D6
:105300000855641C402CF0DB26A800F0AFF826A856
:1053100001F042FD402216A926A801F053FD4246A5
:10532000314626A801F04EFD01A926A800F02AF872
:1053300026A800F09BF826A801F02EFD402206A921
:1053400026A801F03FFD142201A926A801F03AFD8C
:1053500001A926A800F016F800240FE001A9095DB4
:105360000811FFF78FFF05F8140001A9085DFFF78A
:1053700089FF012101EB44016854641C142CEDDB0E
:1053800000BF97E72DE9FC4704460D462068400F13
:10539000616840EAC1062068C700300E8DF8000041
:1053A000300C8DF80100300A8DF80200F0B28DF853
:1053B0000300380E8DF80400380C8DF80500380A0B
:1053C0008DF80600F8B28DF80700207800F03F084D
:1053D000B8F1380F02D2C8F1380001E0C8F1780006
:1053E00081464A462049204601F0ECFC08226946E5
:1053F000204601F0E7FCA068000E2870A068000CB1
:1054000068702089000AA870207AE870E068000EB1
:105410002871E068000C6871A089000AA871207BDF
:10542000E8712069000E28722069000C6872208AD9
:10543000000AA872207CE8726069000E2873606917
:10544000000C6873A08A000AA873207DE873A06925
:10545000000E2874A069000C6874208B000AA874E0
:10546000207EE874BDE8FC8736B5000810B5044618
:105470005C212046FBF752F910BD00002DE9F043F6
:1054800090B007460E4696F800C04FEA0C6C96F8AE
:1054900001804CEA084C96F802804CEA082C96F8F9
:1054A00003804CEA080CCDF800C096F804C04FEA1F
:1054B0000C6C96F805804CEA084C96F806804CEA8D
:1054C000082C96F807804CEA080CCDF804C096F832
:1054D00008C04FEA0C6C96F809804CEA084C96F824
:1054E0000A804CEA082C96F80B804CEA080CCDF8A0
:1054F00008C096F80CC04FEA0C6C96F80D804CEA88
:10550000084C96F80E804CEA082C96F80F804CEA6E
:10551000080CCDF80CC096F810C04FEA0C6C96F849
:1055200011804CEA084C96F812804CEA082C96F848
:1055300013804CEA080CCDF810C096F814C04FEA5E
:105540000C6C96F815804CEA084C96F816804CEADC
:10555000082C96F817804CEA080CCDF814C096F881
:1055600018C04FEA0C6C96F819804CEA084C96F873
:105570001A804CEA082C96F81B804CEA080CCDF8EF
:1055800018C096F81CC04FEA0C6C96F81D804CEAC7
:10559000084C96F81E804CEA082C96F81F804CEABE
:1055A000080CCDF81CC096F820C04FEA0C6C96F899
:1055B00021804CEA084C96F822804CEA082C96F898
:1055C00023804CEA080CCDF820C096F824C04FEA9E
:1055D0000C6C96F825804CEA084C96F826804CEA2C
:1055E000082C96F827804CEA080CCDF824C096F8D1
:1055F00028C04FEA0C6C96F829804CEA084C96F8C3
:105600002A804CEA082C96F82B804CEA080CCDF83E
:1056100028C096F82CC04FEA0C6C96F82D804CEA06
:10562000084C96F82E804CEA082C96F82F804CEA0D
:10563000080CCDF82CC096F830C04FEA0C6C96F8E8
:1056400031804CEA084C96F832804CEA082C96F8E7
:1056500033804CEA080CCDF830C096F834C04FEADD
:105660000C6C96F835804CEA084C96F836804CEA7B
:10567000082C96F837804CEA080CCDF834C096F820
:1056800038C04FEA0C6C96F839804CEA084C96F812
:105690003A804CEA082C96F83B804CEA080CCDF88E
:1056A00038C096F83CC04FEA0C6C96F83D804CEA46
:1056B000084C96F83E804CEA082C96F83F804CEA5D
:1056C000080CCDF83CC0B868F9683A697B69BC69D8
:1056D0004FEA401C4CEAD06882EA030C0CEA010C49
:1056E0008CEA030CC444DFF8F88FC444DDF8008072
:1056F000C44464444FEA817C4CEA91014FEA441C63
:105700004CEAD46881EA020C0CEA000C8CEA020C28
:10571000C444DFF8CC8FC444DDF80480C44463443F
:105720004FEA807C4CEA90004FEA431C4CEAD36875
:1057300080EA010C0CEA040C8CEA010CC444DFF88A
:10574000A08FC444DDF80880C44462444FEA847CDE
:105750004CEA94044FEA421C4CEAD26884EA000CFA
:105760000CEA030C8CEA000CC444DFF8748FC444C8
:10577000DDF80C80C44461444FEA837C4CEA930317
:105780004FEA411C4CEAD16883EA040C0CEA020C93
:105790008CEA040CC444DFF8488FC444DDF8108060
:1057A000C44460444FEA827C4CEA92024FEA401CB7
:1057B0004CEAD06882EA030C0CEA010C8CEA030C78
:1057C000C444DFF81C8FC444DDF81480C44464442E
:1057D0004FEA817C4CEA91014FEA441C4CEAD468C0
:1057E00081EA020C0CEA000C8CEA020CC444DFF8DB
:1057F000F08EC444DDF81880C44463444FEA807CD2
:105800004CEA90004FEA431C4CEAD36880EA010C52
:105810000CEA040C8CEA010CC444DFF8C48EC444C6
:10582000DDF81C80C44462444FEA847C4CEA940452
:105830004FEA421C4CEAD26884EA000C0CEA030CE2
:105840008CEA000CC444DFF8988EC444DDF8208054
:10585000C44461444FEA837C4CEA93034FEA411C01
:105860004CEAD16883EA040C0CEA020C8CEA040CC2
:10587000C444DFF86C8EC444DDF82480C444604422
:105880004FEA827C4CEA92024FEA401C4CEAD06814
:1058900082EA030C0CEA010C8CEA030CC444DFF826
:1058A000408EC444DDF82880C44464444FEA817CBF
:1058B0004CEA91014FEA441C4CEAD46881EA020C9C
:1058C0000CEA000C8CEA020CC444DFF8148EC444C9
:1058D000DDF82C80C44463444FEA807C4CEA90009D
:1058E0004FEA431C4CEAD36880EA010C0CEA040C32
:1058F0008CEA010CC444DFF8E88DC444DDF8308044
:10590000C44462444FEA847C4CEA94044FEA421C4B
:105910004CEAD26884EA000C0CEA030C8CEA000C16
:10592000C444DFF8BC8DC444DDF83480C444614411
:105930004FEA837C4CEA93034FEA411C4CEAD1685E
:1059400083EA040C0CEA020C8CEA040CC444DFF871
:10595000908DC444DDF83880C44460444FEA827CB2
:105960004CEA92024FEA401C4CEAD06882EA030CEF
:105970000CEA010C8CEA030CC444DFF8648DC444C7
:10598000DDF83C80C44464444FEA817C4CEA9101D8
:10599000DDF834C0DDF820808CEA080CDDF80880E2
:1059A0008CEA080CDDF800808CEA08054FEA450C0B
:1059B0004CEAD5784FEA441C4CEAD46981EA020CDF
:1059C0000CEA000C8CEA020CCC44DFF8149DCC44A9
:1059D000C4446344CDF800804FEA807C4CEA9000D8
:1059E000DDF838C0DDF824808CEA080CDDF80C8086
:1059F0008CEA080CDDF804808CEA08054FEA450CB7
:105A00004CEAD5784FEA431C4CEAD36980EA010C92
:105A10000CEA040C8CEA010CCC44DFF8C49CCC44A6
:105A2000C4446244CDF804804FEA847C4CEA940478
:105A3000DDF83CC0DDF828808CEA080CDDF8108029
:105A40008CEA080CDDF808808CEA08054FEA450C62
:105A50004CEAD5784FEA421C4CEAD26984EA000C41
:105A60000CEA030C8CEA000CCC44DFF8749CCC44A8
:105A7000C4446144CDF808804FEA837C4CEA930328
:105A8000DDF800C0DDF82C808CEA080CDDF814800D
:105A90008CEA080CDDF80C808CEA08054FEA450C0E
:105AA0004CEAD5784FEA411C4CEAD16983EA040CF0
:105AB0000CEA020C8CEA040CCC44DFF8249CCC44A5
:105AC000C4446044CDF80C804FEA827C4CEA9202D8
:105AD000DDF804C0DDF830808CEA080CDDF81880B1
