:020000040800F2
:10000000303F00207D020008532B0008992500088E
:10001000512B00085D1F0008753B00080000000020
:10002000000000000000000000000000193100087E
:100030005D24000800000000892F00082D32000810
:10004000970200089702000897020008970200082C
:10005000970200089702000897020008970200081C
:10006000970200089702000897020008970200080C
:1000700097020008970200089702000897020008FC
:1000800097020008970200089702000897020008EC
:1000900097020008970200089702000897020008DC
:1000A00097020008970200089702000897020008CC
:1000B000633300086D340008D93400089702000843
:1000C00097020008970200089702000897020008AC
:1000D0009702000897020008B93800089702000844
:1000E00097020008970200089702000800F002F843
:1000F00000F0B4F80AA090E8000C82448344AAF10E
:100100000107DA4501D100F0A9F8AFF2090EBAE80B
:100110000F0013F0010F18BFFB1A43F0010318473B
:10012000A0750000C075000010F8013B0A4413F0F0
:10013000030408BF10F8014B1D1108BF10F8015B44
:10014000641E05D010F8016B641E01F8016BF9D133
:10015000002D15D010F8014B03F00C030C2BA1EB74
:1001600004040ABF10F8013BA4EB8314A4EB03249E
:1001700005F1010314F8016B5B1E01F8016BF9D561
:10018000914238BF10F8013BD1D3704700230024BF
:1001900000250026103A28BF78C1FBD8520728BF97
:1001A00030C148BF0B6070476E2900F0758370291D
:1001B00000F0EF86662906F09F86652906F09C868A
:1001C000672906F099866129AFF3008003681B0A4E
:1001D00028BF41F08001692900F0F680642900F011
:1001E000F380752900F0F0806F2900F07C86782973
:1001F00000F0BB86E92900F01786E42900F0148698
:10020000F52900F01186EF2900F07986F82900F031
:10021000BA860368DB0928BF41F08001632900F03A
:100220008685732900F08B85E32900F05187F32937
:1002300000F05687002070471FB500F0B5FE04009F
:100240000020002106F02CFB401C606000200021F3
:1002500006F010FBE0601FBD10B510BD00F0DEFF22
:100260001146FFF7E9FF04F0A7F801F005F803B421
:10027000FFF7F2FF03BC03F0D6FF000009488047F8
:1002800009480047FEE7FEE7FEE7FEE7FEE7FEE778
:10029000FEE7FEE7FEE7FEE704480549054A064B90
:1002A0007047000031320008ED00000830390020AE
:1002B000303F0020303B0020303B002070470000E2
:1002C0001CB50C46064B7B4469460090204600F066
:1002D0000CFD04460020694600F01AFD20461CBDB6
:1002E000470A00000FB4044910B503AA029800F0B1
:1002F0002BFD10BC5DF814FB2C0000200FB41CB5C6
:10030000084B06AA7B4469460090059800F0EDFC76
:1003100004460020694600F0FBFC20461CBC5DF84A
:1003200014FB0000090A000070B5044685690068E6
:10033000C10601D5302600E02026C00707D070BDD9
:10034000D4E9012130469047206A401C20626D1E8E
:10035000F6D570BD70B5044685690078C00707D131
:1003600070BDD4E9012120209047206A401C206202
:100370006D1EF6D570BD70B50C460546012A05D038
:100380002878800600D5EA69002302E0012305E011
:100390005B1C934202D2E05C0028F9D1A869E61800
:1003A000C01AA861286A184428622846FFF7BCFFD3
:1003B00004E0D5E9012114F8010B9047B442F8D3C9
:1003C0002846FFF7C7FF70BD2DE9F041064600241F
:1003D00010687529314616A510D000F0F2F90028F2
:1003E00002DA404213A507E031688A0701D512A559
:1003F00002E0490704D511A5012401E000F0EAF963
:1004000000210A2206F1240709E0B0FBF2FCB0FB50
:10041000F2F302FB1C00303078541846491C0028C7
:10042000F3D123462A463046BDE8F04100F0DBB95F
:10043000000000002D0000002B0000002000000044
:100440002DE9F05F894604464FF0000ADFF874B1E9
:10045000FB44C0F820A02046E1688847002874D0FB
:10046000252806D0D4E901219047206A401C20624B
:10047000F1E700265F462046E168884720280546C8
:1004800007DB312D05D2781910F8200C08B106438E
:10049000F1E7B00701D526F00406C4F81CA0002738
:1004A000C4F818A02A2D09D0284603F0B5FE38B3A9
:1004B00004EB8708303DC8F8185019E059F8041BC0
:1004C000204604EB87029161E1688847012F0546C9
:1004D00018D1E069002820DA26F020061DE0D8F8BF
:1004E000180000EB800005EB40003038C8F8180019
:1004F0002046E1688847054603F08EFE0028EED1CD
:10050000012F0AD02E2D08D12046E16888477F1C94
:100510000546022F46F02006C4DBA069002803DA56
:10052000404246F00106A061F00701D026F0100617
:100530006C2D0BD0682D09D04C2D39D06A2D35D0BB
:10054000742D35D07A2D33D016E038E0E1682F468F
:1005500020468847B842054609D16C2F26D04FF473
:100560008060E168064320468847054604E06C2F1A
:100570001AD04FF4807006430DB3A5F1410019283D
:1005800002D8203546F400664A46294620462660B1
:100590004E46FFF709FE80B101280BD0F61D26F06C
:1005A000070000F1080956E74020E4E78020D8E77B
:1005B0000020D6E706F104094DE7284652E7206AF5
:1005C000BDE8F09FD870000030B505460B462A46BE
:1005D00013F8014B12F8010B08B1A042F8D01CB17E
:1005E000002802D06D1CF1E7284630BD10B5431C31
:1005F00002E010F8011B71B18107FAD14FF001320E
:1006000002C88C1A8C4314EAC211F9D0C01A0A0627
:1006100003D0C01E10BDC01A10BD0A0401D0801E38
:1006200010BD0902FCD0401E10BD032A40F23080EC
:1006300010F0030C00F0158011F8013BBCF1020F23
:10064000624498BF11F801CB00F8013B38BF11F8A4
:10065000013BA2F1040298BF00F801CB38BF00F8BB
:10066000013B11F0030300F02580083AC0F0088038
:1006700051F8043B083A51F804CBA0E80810F5E71C
:10068000121D5CBF51F8043B40F8043BAFF30080FF
:10069000D20724BF11F8013B11F801CB48BF11F874
:1006A000012B24BF00F8013B00F801CB48BF00F844
:1006B000012B704710B5203AC0F00B80B1E81850FC
:1006C000203AA0E81850B1E81850A0E81850BFF43C
:1006D000F5AF5FEA027C24BFB1E81850A0E81850DB
:1006E00044BF18C918C0BDE810405FEA827C24BF2F
:1006F00051F8043B40F8043B08BF7047D20728BFBD
:1007000031F8023B48BF11F8012B28BF20F8023B0B
:1007100048BF00F8012B704702F0FF0343EA0322B1
:1007200042EA024200F002B84FF000020429C0F091
:10073000128010F0030C00F01B80CCF1040CBCF113
:10074000020F18BF00F8012BA8BF20F8022BA1EB65
:100750000C0100F00DB85FEAC17C24BF00F8012B4A
:1007600000F8012B48BF00F8012B70474FF0000242
:1007700000B5134694469646203922BFA0E80C5097
:10078000A0E80C50B1F12001BFF4F7AF090728BF72
:10079000A0E80C5048BF0CC05DF804EB890028BFEE
:1007A00040F8042B08BF704748BF20F8022B11F017
:1007B000804F18BF00F8012B704770477047704793
:1007C000704709684A0501D540B27047C905FCD594
:1007D00000B2704709684A0501D5C0B27047C90523
:1007E000FCD580B270472DE9F0470D4699469246F8
:1007F000044600F124080168880604D5E06921F068
:100800001001216000E00120A84201DD471B00E04B
:100810000027A1697A1902EB0900081AA061207863
:10082000C00602D42046FFF77FFD002608E0D4E989
:1008300001211AF806009047206A401C761C2062AD
:100840004E45F4DB2078C0060AD52046FFF76CFD44
:1008500006E0D4E9012130209047206A401C206244
:10086000381EA7F10107F4DC07E0D4E9012118F8EC
:1008700005009047206A401C2062281EA5F1010552
:10088000F3DC2046FFF766FD2078000602D5022043
:10089000BDE8F0870120FBE711680268006A530594
:1008A00001D508700AE0D30501D5088006E01306DB
:1008B00003D5C217C1E9000200E0086001207047BB
:1008C00070472DE9FF4F0C461E464FF0FF378BB0A7
:1008D000D2E90001DDF860800A908A46C1F30A552A
:1008E00005B93D46002108464FF00000BAF1000F5F
:1008F00000F4400005DA00EB80004FF4400101EA0B
:1009000050004FEA9059B9F1010F00DDB9460A983D
:1009100050EA4A000ED044F61050A5F2FF35454388
:100920002F14B8F1000F1ED07542291E1EDDC9F12B
:1009300000021CE0B8F1010F4FF0000001D030219F
:1009400003E0F24305E02154401CB042FBDB30469B
:100950000022002121540B99C1F80880C1E9002030
:100960000FB0BDE8F08FBD1B6D1CDEE74A4600DA14
:10097000694206A800F0B8FB06AB93E8070003AB9A
:1009800083E8070050460A9900F0C0FC8DE8070094
:10099000A0F500501F3800900398002D0ADD42F2A8
:1009A0001F014A460844002303A90390684600F04B
:1009B00029FF09E0A0F500504A461F38002303A98B
:1009C0000390684600F033FF8DE807000004000C38
:1009D00003D04FF0FF30410800E01046B8F1000F9F
:1009E00003D00022009215461EE0751E05D400F0CB
:1009F000DFFA303262556D1EF9D5B3460122084345
:100A000002D000227F1C04E02078302801D100228F
:100A10007F1E002A099784D01DE0112D07DA00F00F
:100A2000C7FA303262556D1C50EA0102F5D1084315
:100A300002D00098C8B10EE00021681E05E0235CDA
:100A4000625C63542254401E491C8142F7DBAB4672
:100A5000A81B401E0990002004F80B000B98099A6F
:100A6000C0F80880C0E9002B7AE711264FF0000893
:100A700057E72DE9F04F88460446D21D22F00701C2
:100A800091B0D1E90001CDE90A0103F0B1FB0246C2
:100A90000B98C00F01D02D2007E02068810701D5F9
:100AA0002B2002E0202101EAC000032A099001D096
:100AB000072A05DB03464146204600F0BFFA0BE15A
:100AC0002078800601D5E06900E00620B8F1650FC6
:100AD000814606D0B8F1660F18D0B8F1670F70D113
:100AE00031E00020B9F1110F009001DB112301E08A
:100AF00009F101030AAA01A90CA8FFF7E2FEDDE94A
:100B00000C70002609F10105834647E001204B46A1
:100B100000904FF000470AAA01A90CA8FFF7D1FEE8
:100B2000DDE90DB00C995D46002610B909F1010010
:100B30000D18B9EB050003D4C0F1FF3609F101052A
:100B4000A5EB09002BE0B9F1010F01DA4FF0010923
:100B50000020B9F1110F0090484601DD112300E09B
:100B600003460AAA01A90CA8FFF7ABFEDDE90C7049
:100B70004D4600268346207800070AD4AB4500DAAC
:100B80005D4601A8012D04DD411911F8011C302931
:100B900007D04F4502DA17F1040F04DA012082462C
:100BA0000FE06D1EEEE7002F02DCED1B3E4403E07C
:100BB000781CA84200DD7D1CB81B00F1010A4FF033
:100BC00000472078000703D4AA4501DB4FF0FF3A25
:100BD0000021B7F1004F0DF143088DF8431024D0E8
:100BE00002202B23002F01DA7F422D230A21021E2F
:100BF000A0F1010000DC5FB197FBF1FC97FBF1F283
:100C000001FB1C7C17460CF1300C08F801CDEEE717
:100C1000A8F1010003702188090501D5452100E0F4
:100C20006521A0F1010800F8011C09980FA9A1EBAA
:100C30000807FF1D00B10120411901EBEA70A1690D
:100C40003844081A401EA0612078C00602D420460D
:100C5000FFF76AFB099828B1D4E901219047206A7F
:100C6000401C20622078C00622D52046FFF75CFB9E
:100C70001EE0002E04DBB34502DD01A8805D00E02C
:100C80003020D4E901219047206A401C2062761C64
:100C9000AAF101005FEA000A0AD100F085F9C068F4
:100CA0000168405CD4E901219047206A401C206221
:100CB000281EA5F10105DCDC07E0D4E9012118F8C4
:100CC000010B9047206A401C2062381EA7F10107E3
:100CD000F3DC2046FFF73EFB032011B041E60000A5
:100CE00001694A1C02610878704700B58FB0CDE9F0
:100CF00001310021059105497944CDE903101146E0
:100D00006846FFF79DFB0FB000BD0000E5FFFFFF49
:100D10000A6802F8010B0A60704710B5436913B105
:100D2000AFF3008001E0FFF726FB012010BD127831
:100D300000F124010A7000224A700122EDE71168D7
:100D40004FF0FF32E9E70000074B70B50D467B44DA
:100D5000FFF7CBFF0446284600F038FA10B14FF0F9
:100D6000FF3070BD204670BD4B3600002DE9FF5F9F
:100D700015468A460446DFF8AC80F8440027D8E9D7
:100D800000103E46CDE9001010E03AF816106A4611
:100D900002A800F01FFA411C07D02178890603D56C
:100DA000E269391891420DD80744761C20788006F4
:100DB00002D5E069B84205DDAE42E6DB3AF816003E
:100DC0000028E2D1A069C01BA0612046FFF7ACFA61
:100DD000D8E90010CDE90010002017E03AF818100B
:100DE0006A4602A800F0F6F9B0F1FF3F81460BD049
:100DF00000250DF1080B05E0D4E901211BF80500E1
:100E000090476D1C4D45F7D308F10100B042804674
:100E1000E4DB206A384420622046FFF79BFABDE8F5
:100E2000FF9F0000C26700002DE9F0418046D21DFF
:100E300022F007020025D2E90002F52915A614D0F8
:100E4000011E72F1000106DA0023D0EB030063EB10
:100E5000020211A608E0D8F800108B0701D50FA6F2
:100E600002E0490701D50EA601251146002408F12C
:100E7000240704E000F09CF830323A55641C50EA34
:100E80000102F7D12B46324621464046BDE8F041EB
:100E9000FFF7A9BC000000002D0000002B0000009F
:100EA0002000000030B4002100F1240408E002F02A
:100EB0000705D208303542EA4372DB086554491C05
:100EC00052EA0305F3D10468002310A2250707D5D1
:100ED000A40600D421B1C46901230DA2641EC4611B
:100EE00030BCFFF780BC10B5044621461068FFF700
:100EF00071FC02462046BDE810400023D2E7D21D17
:100F000022F00701D1E90023CCE700000000000037
:100F100030000000F0B40D460188090502D5214CCF
:100F20007C4402E01F4C7C440E34002100F1240676
:100F300008E002F00F071209E75D42EA03721B099D
:100F40007754491C52EA0307F3D1027800231207B1
:100F500004D5702D06D009B1022311342246F0BC0D
:100F6000FFF741BC01231034F8E770B504460D4685
:100F700021461068FFF72EFC024629462046BDE8B0
:100F800070400023C6E7D21D22F00703D3E90023F7
:100F9000C0E70368126843F0200303600823C361BD
:100FA0000023B7E72466000000487047F0380020AF
:100FB00030B5B0F10A024FEA900E71F100034EEA2B
:100FC000817EB0EB0E0061EB91014FEA101E4EEAFC
:100FD000017E10EB0E0041EB11114FEA102E4EEA8C
:100FE000016E10EB0E0041EB11214FEA104E4EEA5C
:100FF000014E10EB0E0041EB1141401841F1000190
:101000004FEAD00040EA41704FEAD10110EB800571
:101010004FEA810444EA907444EB01046D1944EBF7
:101020000404521BA3414FF0000348BF0A3200D50D
:1010300030BD401C41F1000130BD00002DE9F04100
:101040001F46044603260168072A01F4006004DBFA
:1010500008B116A505E016A503E008B115A500E046
:1010600015A521F010002060A069C01EA0610FB17D
:10107000401EA0612046FFF757F94FB1D4E9012186
:1010800038469047206A401C2062C01C206206E05F
:10109000206AFAE7D4E9012115F8010B9047761E82
:1010A000F8D22046FFF756F9BDE8F0814E414E00D8
:1010B0006E616E00494E4600696E660010B5436968
:1010C00013B1AFF3008001E0FFF750FE012010BD27
:1010D000128800F1240182840022C2840122EDE7FB
:1010E00011684FF0FF32E9E72DE9F04781461646D7
:1010F0008AB0354878440DC88DE80D0032487844F0
:10110000801C03AC0DC884E80D0041F69B300844F8
:10111000372190FBF1F290FBF1F5A5F1800501FB81
:1011200012041B3C02D56442012000E00020DFF8DD
:1011300098A080460027FA44AAF1BE0A0EE0E00714
:101140000AD03246684607EB470101230AEB8101CA
:1011500000F06DFB8DE8070064107F1C002CEED1C1
:10116000194F7F44AE3F19E0E80715D007EB041094
:101170000DF1180A90E80E008AE80E00C068F042EF
:1011800001D1981908903246012306A903A800F05E
:101190004EFB03AB83E807006D10641C002DE3D108
:1011A0004FF0010332466946B8F1000F03A802D0A0
:1011B00000F028FB01E000F03AFBC9E90001C9F8A2
:1011C00008200AB0BDE8F087F4640000007B00F05E
:1011D0008000704770B516460C46054600F044F88E
:1011E000036893F80101012806D0FF2C0FD8185D81
:1011F00068B101202C7070BDD3F80701324621463A
:1012000003F2071303442846BDE8704018474FF027
:10121000FF3070BD00487047D03800207546FFF79A
:10122000F9FFAE4605006946534620F007008546A3
:1012300018B020B5FFF730F8BDE820404FF00006A9
:101240004FF000074FF000084FF0000B21F00701AE
:10125000AC46ACE8C009ACE8C009ACE8C009ACE8F1
:10126000C0098D467047000010B5FFF79DFE001DB8
:1012700010BD00BF2D56000010B50446AFF300802E
:101280002046BDE81040FEF7F2BF00004FF0013CE1
:1012900050F8042B51F8043B9A4221D1A2EB0C03E5
:1012A000934313EACC1317D150F8042B51F8043BA5
:1012B0009A4215D1A2EB0C03934313EACC130BD142
:1012C00050F8042B51F8043B9A4209D1A2EB0C03CD
:1012D000934313EACC13DBD04FF00000704700BFFC
:1012E000D01A01BAB1FA81F101F0180122FA01F025
:1012F000CB40C1F12001DBB2C0B2C01A2CFA01F31D
:10130000D11A914311EAC311E6D170475FEA400C4C
:1013100008BF91F0000F4FEA8C234FEAC12243EA45
:1013200051514FEA1C5018BF00F5F0404FEA300011
:1013300018BF41F000415FEA6C5C00F02980BCF10D
:10134000FF3F08BF40F080407047130C06BF1204F7
:101350004FF0100C4FF0000C130E04BF12020CF1F2
:10136000080C130F04BF12010CF1040C930F04BFFF
:1013700092000CF1020CD30F04BF52000CF1010CCF
:1013800011464FF00002A0F11F00A0EB0C007047C7
:1013900011F0004F08BF704731F000413FF4D5AF66
:1013A0000B0C06BF09044FF0100C4FF0000C0B0E95
:1013B00004BF09020CF1080C0B0F04BF09010CF16A
:1013C000040C8B0F04BF89000CF1020CCB0F04BF7F
:1013D00049000CF1010CCCF12003A0EB0C0022FA27
:1013E00003F302FA0CF241EA030100F10100704735
:1013F00020F07F4C80EA030023F07F47ACEB07032B
:1014000003F57C5300F0004003F1FF032DE9804910
:101410004FEA154B09B44FEA144325EA0B4E24EA70
:1014200003480FF2042606EB132749083E785FEACB
:10143000320203FB0667C7F5000707FB06F64FEA13
:1014400054374FEAD64606F1020607FB066CCCF18C
:10145000005C4FEA1C472CEA074C07FB06F40CFB28
:1014600006F504EB15464FEA961634BF00204FF000
:1014700000404FEAD13706FB07FC4FEA1C4C0CFB3F
:101480000BF7D21B03FB0CF761EB07010CFB0EF70C
:10149000B0EB074072EB17420CFB08F734BFA2EB2E
:1014A0000742B2EB074261EB17414FEA0C444FEAA7
:1014B000910706FB07FC4FEA1C4C0CFB0BF7B0EB4B
:1014C000C74072EB573203FB0CF734BFA2EBC742A5
:1014D000B2EBC74261EB57310CFB0EF7B0EBC70024
:1014E00072EB57720CFB08F734BFA2EBC702B2EBEA
:1014F000C70261EB5771039F4FEA816141EA921184
:1015000004EBCC044FEAD1374FEA826206FB07FCBA
:1015100042EA90124FEA80604FEA1C4C0CFB0BF73A
:10152000D21B03FB0CF761EB07010CFB0EF7B0EBD2
:10153000074072EB17420CFB08F734BFA2EB0742DF
:10154000B2EB074261EB17414FEA8C554FEA910726
:1015500004EB9C2406FB07FC4FEA1C4C0CFB0BF72E
:10156000B0EBC74072EB573203FB0CF734BFA2EB72
:10157000C742B2EBC74261EB57310CFB0EF7B0EB41
:10158000C70072EB57720CFB08F734BFA2EBC7021F
:10159000B2EBC70261EB577115EB4C254FEA816145
:1015A00041EA92114FEA82624FEAD13742EA901241
:1015B00006FB07FC44F100044FEA80604FEA1C4C34
:1015C0000CFB0BF7D21B03FB0CF761EB07010CFBC9
:1015D0000EF7B0EB074072EB17420CFB08F734BF75
:1015E000A2EB0742B2EB074261EB174115EB1C156A
:1015F0004FEA813141EA92414FEA823242EA904217
:101600004FEA80304FEA0C7644F1000448EA034385
:101610004EEA0B484FF0000EB2EB080C71EB0307DB
:1016200024BF624639464EEB0E0E4FF0000B0018F9
:10163000524149414BEB0B0BB2EB080C71EB03072A
:101640007BF1000B24BF624639464EEB0E0E4FF085
:10165000000B0018524149414BEB0B0BB2EB080C4D
:1016600071EB03077BF1000B24BF624639464EEB5A
:101670000E0E51EA020718BF46F0010616EB0E7671
:1016800055F1000254F1000103D5BDE88901BDE820
:101690000088BDE88901BDE80048B619524141EB18
:1016A0000101A3F10103704780807F7E7D7C7B7AFE
:1016B0007978777676757473727171706F6E6E6DFE
:1016C0006C6C6B6A6A6968686766666564646363A4
:1016D00062616160605F5F5E5E5D5D5C5C5B5B5A2A
:1016E0005A59595858575756565555555454535397
:1016F00052525251515050504F4F4F4E4E4D4D4DF2
:101700004C4C4C4B4B4B4A4A4A494949484848473C
:10171000474747464646454545444444444343437A
:101720004342424242414141002B9C4630D4770023
:101730002BD01CB54FEA370703B44FF010004FF021
:101740001001BAF1000F06D0BCF1000FDCBF40F071
:10175000080040F008014FF000000FBCBDE8104049
:101760000BF1010BBBF1010F08BF5FEA170722BFA6
:1017700012F1010211F101014FF0004143F10003A8
:1017800000F0004043EA00007047F9D35708D0E763
:1017900046EA064613F1400F4FEA16461FDD13F1E5
:1017A000200FDFBF16430A46002120335B42BED024
:1017B000C3F1200746EA064602FA07F74FEA164643
:1017C00046EA0706C3F1200722FA03F201FA07F7F7
:1017D00021FA03F14FF0000342EA0702A7E746EAC5
:1017E000020646EA06464FEA164646EA0106BCBF2E
:1017F00046EA0646360C4FF000034FF000024FF069
:10180000000194E72DE9804C9A46934670B491E824
:10181000380007C831EA400C48BF34EA430C03D50E
:10182000FFF7E6FDFFF780FFF0BCBDE8008C2DE977
:10183000804C9A46934670B491E8380007C810F07F
:10184000804F08BF13F0804F03D100F005F8FFF779
:101850006BFFF0BCBDE8008C20F07F4780EA0300FE
:1018600023F07F4C07EB0C03A3F57C5300F0004002
:10187000A3F1FE0392F0000F00F0B38095F0000F8B
:1018800000F077802DE901494FEA11404FEA1446F4
:1018900021EA004800FB06FC24EA064708FB06F69E
:1018A00007FB08F800FB07F718EB06484CEB164C53
:1018B0004FEA124B18EB07484FEA15464CEB17401E
:1018C00022EA0B4E0BFB06FC25EA06470EFB06F64A
:1018D00007FB0EFE0BFB07F71EEB064E4CEB164C00
:1018E0004FF000061EEB074E4CEB174B18EB0B08A6
:1018F00040F1000018EB0E0B58EB000840F100001F
:101900008F1A4FF000013CBFC943661B14BFB5EBF3
:10191000040C00213CBFC943F61B4FEA17444EEAB2
:101920008E0E27EA04454FEA1C4704FB07622CEAA7
:10193000074C05FB07F70CFB05F604FB0CFC16EB4C
:10194000074642EB174216EB0C4642EB1C421BEBE0
:10195000060658EB0202414146EA9E0601D5BDE863
:101960000189B619524141EB0101A3F10103BDE820
:1019700001894FEA14454FEA114724EA054621EA56
:10198000074C05FB07F406FB07F70CFB06F105FB0C
:101990000CFC11EB074144EB17444FEA124711EBE3
:1019A0000C4144EB1C4422EA074C05FB07F206FB02
:1019B00007F70CFB06F605FB0CFC16EB074642EBA3
:1019C000174216EB0C4642EB1C456A1854F1000115
:1019D00048BF7047B619524141EB0101A3F1010321
:1019E000704795F0000F37D04FEA11424FEA144785
:1019F00021EA024624EA074C02FB07F106FB07F73F
:101A00000CFB06F402FB0CFC14EB074441EB174102
:101A10004FEA154714EB0C4441EB1C4125EA074CF7
:101A200002FB07F506FB07F70CFB06F602FB0CFCB6
:101A300016EB074645EB174516EB0C4645EB1C42EB
:101A4000121951F1000148BF7047B619524141EBDC
:101A50000101A3F1010370474FEA14454FEA114712
:101A600024EA054621EA074C05FB07F106FB07F7C8
:101A70000CFB06F24FF0000605FB0CFC12EB0742D4
:101A800041EB174112EB0C4251EB1C4148BF704730
:101A9000921841EB0101A3F10103704721B1826863
:101AA00042F00102826003E0826822F0010282605B
:101AB000704721B1826842F48072826003E08268DC
:101AC00022F4807282607047014600208A6802F02A
:101AD00004020AB1012000E0002070470146002006
:101AE0008A6802F008020AB1012000E00020704775
:101AF00030B502460020002350680F4C20400D797D
:101B00000C6844EA05242043506090680B4C204048
:101B1000D1E902542C434D7944EA450420439060B6
:101B2000D06A20F470000C7C641EE4B2234340EAC7
:101B30000350D06230BD0000FFFEF0FFFDF7F1FF63
:101B4000F0B504460D4600200021092D11DDE068A6
:101B5000A5F10A0606EB4607072606FA07F18843B1
:101B6000A5F10A0606EB460603FA06F10843E06013
:101B70000CE0206905EB4507072606FA07F18843C4
:101B800005EB450603FA06F108432061072A0FDA40
:101B9000606B561E06EB86071F2606FA07F1884380
:101BA000561E06EB860605FA06F10843606322E03E
:101BB0000D2A0FDA206BD61F06EB86071F2606FAC2
:101BC00007F18843D61F06EB860605FA06F108439F
:101BD000206310E0E06AA2F10D0606EB86071F26DF
:101BE00006FA07F18843A2F10D0606EB860605FA10
:101BF00006F10843E062F0BD816841F008018160B0
:101C0000704721B1826842F4A002826003E08268DA
:101C100022F4A00282607047816841F00401816073
:101C20007047000000B591B00121480201F0EAF9C7
:101C30000121042001F0E6F90121084601F0B2F982
:101C40004FF4004001F0A2F900208DF80300C320FA
:101C5000ADF8000003208DF802006946364800F018
:101C6000FEFB0523012200213448FFF769FF05230D
:101C7000022201213148FFF763FF052303220221DD
:101C80002E48FFF75DFF0523042203212B48FFF7B1
:101C900057FF00200C900F904FF460200E90012011
:101CA0008DF835008DF8340004208DF840000CA923
:101CB0002248FFF71DFF21484C3001908015079006
:101CC000002005901E4802904FF48060089080200C
:101CD000069000200390042004902020099000200A
:101CE0000B904FF480500A9001A9164800F066FA54
:101CF0000121144800F056FA01211048FFF7D9FEDF
:101D000001210E48FFF7CAFE0C48FFF775FF00BF20
:101D10000A48FFF7E3FE0128FAD00848FFF77CFFE6
:101D200000BF0648FFF7D0FE0128FAD00121034882
:101D3000FFF767FF11B000BD00080140002401401B
:101D4000F40200200800024010B5A2B08022002159
:101D50002E48FEF7E1FC2EA22FA12C48FEF7CEFA6A
:101D60002A48FEF743FC36490860802200213548A6
:101D7000FEF7D2FC34A326A236A13248FEF7BEFA03
:101D80003048FEF733FC354908608022002102A864
:101D9000FEF7C2FC2CA01EA31DA231A1009002A838
:101DA000FEF7ACFA02A8FEF721FC0446202035A37A
:101DB0003D4A2146009002A802F070FF3A48FEF723
:101DC00015FC3A490860802200213948FEF7A4FC3E
:101DD0001DA238A13648FEF791FA40F25B703F49E8
:101DE00008600846324902683DA002F08FFE0749AC
:101DF00040A002F08BFE134942A002F087FE2A4960
:101E000044A002F083FE22B010BD0000A4350020E3
:101E100053544D333200000025737C736563757233
:101E2000656D6F64653D332C7369676E6D657468AD
:101E30006F643D686D6163736861317C0000000010
:101E400054000020243600206B306635756C6F53CB
:101E500067593300257326257300000058000020C1
:101E6000636C69656E74496425736465766963653E
:101E70004E616D65257370726F647563744B65791F
:101E800025730000343238396431373762393563AD
:101E90003162303435383931343633326561316549
:101EA0003130393900000000A43600205C000020E9
:101EB0002437002025732E696F742D61732D6D7189
:101EC00074742E636E2D7368616E676861692E612C
:101ED0006C6979756E63732E636F6D00600000200E
:101EE000B7FE20CEF120C6F7A3BA25733A25640DBC
:101EF0000A000000BFCDBBA7B6CB4944A3BA2573E7
:101F00000D0A0000D3C320BBA720C3FBA3BA2573CF
:101F10000D0A0000C3DC20202020C2EBA3BA2573E9
:101F20000D0A000008B50121082001F06BF84FF4FC
:101F30009060ADF8000010208DF8030003208DF8AC
:101F400002006946044800F08AFA4FF490610248A2
:101F500000F01BFB08BD0000000C014070470000B2
:101F600070B505460C462246294615480068801C77
:101F7000FEF75BFB2046E11704EB1161090A104AEA
:101F800012681170E11704EB11610912A4EB012131
:101F90000B4A12685170002109480268A01C1154B4
:101FA0000748006800F59670054908600846006813
:101FB00004490968884202D103480149086070BD9C
:101FC0004800002050000020C82F002010B5002439
:101FD0001548006820F00F001349086008460068A3
:101FE00040F00800086004E0601CC4B2012002F068
:101FF000B3F90E48006808B1642CF5DB642C01DBF2
:10200000012010BD002404E0601CC4B2012002F0D5
:10201000A3F90648006808B9642CF5DB642C01DBE1
:102020000120EEE70020ECE70408014020012142F6
:1020300008B50121042000F0E5FF4FF48070ADF8F1
:10204000000010208DF8030003208DF8020069467F
:10205000064800F004FA4FF48071044800F095FA45
:1020600000F080F8FFF7B2FF08BD00000008014053
:1020700010B5002404E0601CC4B2012002F06CF929
:102080000D48006808B1642CF5DB002404E0601CF6
:10209000C4B2012002F060F90748006808B9642C56
:1020A000F5DB282002F058F90348006808B1012048
:1020B00010BD0020FCE700002001214270B5002483
:1020C000002506E06006040EFFF7D2FF0443681CFB
:1020D000C5B2082DF6DB204670BD2DE9FC41054652
:1020E0000E461746984600F03DF8FFF76FFF98BB85
:1020F000002405E0FFF7E2FF0DF80400601CC4B205
:10210000052CF7DB9DF800009DF8011008449DF8B0
:10211000021008449DF8031008449DF804108842FA
:102120001ED19DF800000A2190FBF1F028709DF867
:10213000010090FBF1F201FB120030709DF80200EB
:1021400090FBF1F038709DF8030090FBF1F201FB79
:10215000120088F8000003E0FFE70120BDE8FC81E1
:102160000020FBE710B50C48006820F00F000A497A
:1021700008600846006840F0030008600020074936
:102180000860142002F06CF801200549C1F8A00194
:102190001E2002F0E1F810BD04080140A001214218
:1021A0000000214221B1026842F00102026004E015
:1021B00002684FF6FE731A400260704710B50022A5
:1021C000026847F6F0739A430C6A8B6823430C69E4
:1021D00023434C6923438C692343CC6923434C6AD2
:1021E00023438C6A23431A430260CB6843600B6825
:1021F00083604B68C36010BD08B50121082000F062
:1022000001FF4FF48050ADF8000010208DF803005E
:1022100003208DF802006946044800F020F94FF4CD
:102220008051024800F0B1F908BD0000000C0140E7
:102230002DE9F05F00F0C8F800F068F8CC2000F05D
:10224000DBF8442000F0D8F800F0BEF800F05EF8AB
:10225000CC2000F0D1F8BE2000F0CEF800F0A2F8BB
:10226000834600F09FF882464FEA0A2004B244EA0F
:102270000B04002C0DDAE043401C04F0B1FC0746CF
:1022800000220B4B04F0C4FC054604F01FFB814602
:102290000BE0204604F0A4FC07460022054B04F0A6
:1022A000B7FC054604F012FB81464846BDE8F09FA6
:1022B0000000B03F0000E43F10B5FFF79DFF00F0C5
:1022C00083F800F023F810BD08B54FF48050ADF846
:1022D000000048208DF803006946024800F0BFF86E
:1022E00008BD0000000C014008B54FF48050ADF867
:1022F000000010208DF8030003208DF802006946CD
:10230000014800F0ACF808BD000C014010B50024F5
:10231000FFF7DAFF04E0601CC4B2012002F01CF8F1
:102320004FF480510F4800F025F908B1642CF2DB1E
:10233000642C01DB012010BD002404E0601CC4B249
:10234000012002F009F84FF48051064800F012F91C
:1023500008B9F02CF2DBF02C01DB0120EBE70020C8
:10236000E9E70000000C014010B5FFF7BDFF4FF496
:1023700080510B4800F007F90A2001F0EDFFFFF74C
:10238000A3FF4FF48051064800F0F4F8012801D172
:10239000012400E000242D2001F0DEFF204610BDC6
:1023A000000C014070B50026002408E0FFF7DCFFB8
:1023B000054605FA04F03043C6B2601CC4B2082CCE
:1023C000F4DB304670BD000010B5FFF78DFF4FF411
:1023D0008051084800F0D7F840F2EE2001F0BCFF31
:1023E0004FF48051034800F0D0F80F2001F0B4FF03
:1023F00010BD0000000C014070B50446FFF774FFEB
:10240000002526E004F00106641086B14FF48051E7
:10241000114800F0B8F8082001F09EFF4FF48051F9
:102420000D4800F0B2F83A2001F096FF0FE04FF4AB
:102430008051094800F0A7F8462001F08DFF4FF4C5
:102440008051054800F0A1F8022001F085FF681CCA
:10245000C5B2082DD6DB70BD000C014070472DE9D8
:10246000F04102460025002600200023002400271A
:1024700091F803C00CF00F0591F803C00CF0100C9C
:10248000BCF1000F03D091F802C04CEA050591F8A9
:1024900000C0BCF1000F31D0146800202BE04FF0D9
:1024A000010C0CFA00F3B1F800C00CEA03069E42DE
:1024B00020D183004FF00F0C0CFA03F7BC4305FA50
:1024C00003FC4CEA040491F803C0BCF1280F06D1C8
:1024D0004FF0010C0CFA00FCC2F814C00AE091F8AD
:1024E00003C0BCF1480F05D14FF0010C0CFA00FC01
:1024F000C2F810C0401C0828D1D31460B1F800C045
:10250000BCF1FF0F34DD546800202EE000F1080C10
:102510004FF0010808FA0CF3B1F800C00CEA03060A
:102520009E4221D183004FF00F0C0CFA03F7BC43FD
:1025300005FA03FC4CEA040491F803C0BCF1280F2F
:1025400005D100F1080C08FA0CF8C2F8148091F8D3
:1025500003C0BCF1480F07D100F1080C4FF001088F
:1025600008FA0CF8C2F81080401C0828CED354603A
:10257000BDE8F0810246002093680B400BB10120BA
:1025800000E00020704741617047016170470AB167
:10259000016100E0416170477047000008B501210A
:1025A000082000F02FFD0120ADF8000003208DF879
:1025B000020010208DF8030069460448FFF74FFF22
:1025C00001210248FFF7E1FF08BD0000000C0140B7
:1025D00010B5164816490860084600681549086095
:1025E00015481649086016481649086008460068EC
:1025F00015490860154816490860164816490860CC
:10260000084600681549086015481649086000F03A
:102610003FF8002114A000F04FFA0020194908707B
:10262000194908701949087010BD000010240020D5
:102630003000002034000020C02800203800002096
:10264000EC2900203C000020400000209C2E0020AF
:1026500044000020C82F0020480000204C0000202B
:1026600078340020500000202F6B306635756C6F79
:10267000536759332F53544D33322F757365722F6F
:102680006765740073000020720000207000002055
:1026900070B501207A4908600A207A4908607A48B2
:1026A0000068001D794909680844801C7849096858
:1026B0000844784908607348006809684418102085
:1026C0007549087000BF2046E11704EB5161C9113C
:1026D000A4EBC115E11704EB5161CC11002C01DD15
:1026E00045F080056C48664A126885546448006865
:1026F000401C63490860002CE5DC0021664A604804
:102700000068115404215E480068401C11544D219A
:102710005B480068801C1154512159480068C01C56
:102720001154542156480068001D11545448006843
:10273000401D1154042152480068801D1154C221CB
:102740004F480068C01D115400214D4800680830F2
:10275000115464214A480068093011544A490868F4
:10276000C11700EB1161C1F307224B4B44490968C3
:102770000A315A5444490868C11700EB1161091223
:10278000A0EB0121CAB23E4909680B315A541A46DE
:102790003B4909680C3150183B490A683F49FDF72D
:1027A00044FF3A490868C11700EB1161C1F30722E1
:1027B000334909680C31344B1B681944364B5A5461
:1027C00032490868C11700EB11610912A0EB012121
:1027D000CAB22B4909680D312B4B1B6819442E4B8B
:1027E0005A54274909680E31274A126811441A467B
:1027F000881826490A682A49FDF717FF24490868FE
:10280000C11700EB1161C1F307221D4909680E31A0
:102810001D4B1B6819441D4B1B6819441E4B5A5411
:102820001B490868C11700EB11610912A0EB0121D7
:10283000CAB2134909680F31134B1B681944134B73
:102840001B681944144B5A540D49096810310E4A3B
:10285000126811440D4A126811441A4688180C492E
:102860000A681049FDF7E1FE05480068054A12684C
:102870001044084A12688118074800F0EBFF70BD49
:102880006400002068000020540000205800002050
:102890005C0000206C000020A4370020A43500203C
:1028A00024360020A43600202DE9F04FD1B0804618
:1028B00098F8011098F8000001EB0020509008F102
:1028C00002070020814605460646834601244FF054
:1028D000010A00BF0BF1010B00BF281917F8009087
:1028E00009F07F0000FB0A664FEACA1A641C09F06F
:1028F00080000028F1D13019054431195098401A50
:1029000050900124A246002650980028E2D1594652
:1029100020A002F0FBF800200546064600BF00BFDD
:102920004C9030E000BF281917F8009009F07F00A4
:1029300000FB0A664FEACA1A641C09F080000028EE
:10294000F1D1601C2844395C6019385C01EB00202F
:10295000801C4F904F98301A4E9029194F98084478
:102960004D904D98391801A84E9AFDF75EFE01A8CA
:102970004E99FFF7F5FA301905440124A2460026C6
:102980004C98401C4C904C985845CBDB51B0BDE85E
:10299000F08F0000B1BEB4CEBDD3CAD5C1CB256483
:1029A000B8F6CDC6CBCDCAFDBEDD0D0A00000000D5
:1029B00010B5C02004490870002048700221024868
:1029C00000F048FF10BD0000A43700202DE9F047BB
:1029D0000546884616460120334908602846FDF71B
:1029E00005FE801C314908603148066008460068D1
:1029F0002F490968441830202E49087000BF20462E
:102A0000E11704EB5161C911A4EBC117E11704EB05
:102A10005161CC11002C01DD47F080072548224A86
:102A20001268875420480068401C1F490860002C29
:102A3000E5DC2846FDF7DAFDC0F307211D4A1A48F8
:102A4000006811542846FDF7D1FDC1B2194A164855
:102A50000068401C11542846FDF7C8FD8146154A00
:102A600011490968891C50184A462946FDF7DDFDC1
:102A70002846FDF7BBFD0C490968891C08440D492F
:102A800000EB0109324641464846FDF7CEFD0648B7
:102A90000068064A12681044054A12688118054801
:102AA00000F0D8FEBDE8F087640000206800002038
:102AB0006C000020A437002070B504460D460220AB
:102AC0001F4908601F4908602046FDF78FFDC01CA4
:102AD0001D49086082201D4908701A4800781A496B
:102AE0000978084419494870002088700120C8708E
:102AF0002046FDF77BFD000A144908712046FDF7CA
:102B000075FD124948712046FDF770FD06463246B4
:102B100021460E48801DFDF788FD2046FDF766FD25
:102B2000801D0A490D5406480068064A1268104480
:102B3000054A12688118054800F08CFE70BD00003F
:102B400064000020680000206C000020A4370020F2
:102B50007047704770B5002100230F22C47804B37A
:102B6000154C246804F4E064C4F5E064210AC1F162
:102B70000403CA40447804FA03F1847814402143E2
:102B800009010E4C0678A155047804F01F050124B4
:102B9000AC4005786D11AD0005F1E025C5F80041A8
:102BA00009E0047804F01F050124AC40044D0678C8
:102BB000761145F8264070BD0CED00E000E400E021
:102BC00080E100E002490143024A116070470000C1
:102BD0000000FA050CED00E070B500240EE00021C5
:102BE000204600F0F0F8002504E0002000F0BCF9D9
:102BF000681CC5B2802DF8DB601CC4B2082CEEDB6B
:102C000070BD000008B50121082000F0FBF9142078
:102C10008DF8030003208DF802004FF48070ADF8AA
:102C2000000069460A48FFF71AFC4FF40070ADF83F
:102C3000000069460648FFF712FC01221102044811
:102C4000FFF7A5FC012251020148FFF7A0FC08BDD7
:102C5000000C014070B50546002415E0802020419D
:102C600000EA05024FF400710E48FFF790FC0122C4
:102C700011020C48FFF78BFC00224FF480710948C9
:102C8000FFF785FC601CC4B2082CE7DB01221102AF
:102C90000448FFF77CFC00224FF480710148FFF7E5
:102CA00076FC70BD000C014010B5012251020A48AB
:102CB000FFF76DFC012211020748FFF768FC0022B4
:102CC0004FF400710448FFF762FC00224FF480715A
:102CD0000148FFF75CFC10BD000C014010B500225C
:102CE0004FF400710648FFF752FC0122110204481C
:102CF000FFF74DFC012251020148FFF748FC10BDCF
:102D0000000C014070B5002406E0002500E06D1CB9
:102D1000B5F57A7FFBD3641CB4F57A7FF5D3FFF762
:102D200071FFAE2000F010F9D52000F00DF98020E1
:102D300000F00AF9A82000F007F93F2000F004F99C
:102D4000D32000F001F9002000F0FEF8402000F050
:102D5000FBF8A12000F0F8F8C82000F0F5F8DA2020
:102D600000F0F2F8122000F0EFF8812000F0ECF80B
:102D7000CF2000F0E9F8D92000F0E6F8F12000F0CB
:102D8000E3F8DB2000F0E0F8302000F0DDF8A420CC
:102D900000F0DAF8A62000F0D7F88D2000F0D4F883
:102DA000142000F0D1F8AF2000F0CEF8FFF714FFA8
:102DB00070BD10B50246012000E050430B1EA1F18A
:102DC0000101FAD110BD70B505460C4645F0B000C2
:102DD00000F0BAF8102141EA141000F0B5F804F040
:102DE0000F0000F0B1F870BD2DE9F04105460E4628
:102DF00017464FF00008721ED206110E6A1E5206C8
:102E0000100EFFF7E0FF00240BE0164A02EB8711DB
:102E1000085D00F0A9F808F1010000F0FF08601C4F
:102E2000C4B2102CF1DB721ED206110E6A1E0123F1
:102E300003EB4202D0B2FFF7C6FF00240DE0790099
:102E4000491C084A02EB4111085D00F08DF808F1B9
:102E5000010000F0FF08601CC4B2102CEFDBBDE8DD
:102E6000F0810000740000202DE9F04105460E4677
:102E70001746721ED206110E6A1E5206100EFFF77A
:102E8000A2FF002409E0A7F12001134A02EB01117F
:102E9000085D00F069F8601CC4B2082CF3DB721EF8
:102EA000D206110E6A1E012303EB4202D0B2FFF7D5
:102EB0008AFF00240BE0A7F12001074A02EB011270
:102EC00004F10801505C00F04FF8601CC4B2082CFB
:102ED000F1DBBDE8F0810000FC6E00082DE9F04751
:102EE00080460E4617461D46002415E0281B411E4D
:102EF0000A20FFF75EFFB7FBF0F00A21B0FBF1F20A
:102F000001FB120000F130093019C1B24A464046B7
:102F1000FFF7AAFF601CC4B2AC42E7DBBDE8F08754
:102F20002DE9F04107460E461546002407E02A5DCC
:102F30003019C1B23846FFF797FF601CC4B2285D54
:102F40000028F4D1BDE8F08110B50446FFF7ACFECF
:102F50007820FFF77FFE0020FFF77CFE2046FFF77A
:102F600079FEFFF7BBFE10BD10B50446FFF79CFECF
:102F70007820FFF76FFE4020FFF76CFE2046FFF73A
:102F800069FEFFF7ABFE10BD704700000146002050
:102F9000034A506820F440400843506070470000E6
:102FA0000010024029B1064A52690243044B5A619B
:102FB00004E0034A52698243014B5A6170470000A2
:102FC0000010024029B1064AD2690243044BDA617B
:102FD00004E0034AD2698243014BDA617047000082
:102FE0000010024029B1064A12690243044B1A61DB
:102FF00004E0034A12698243014B1A6170470000E2
:103000000010024029B1064A92690243044B9A61BA
:1030100004E0034A92698243014B9A6170470000C1
:103020000010024029B1064AD2680243044BDA601C
:1030300004E0034AD2688243014BDA607047000023
:103040000010024030B500210022002400232D4D45
:103050006D6805F00C0121B1042905D0082923D1A0
:1030600005E0294D056022E0274D05601FE0254D54
:103070006D6805F47012234D6D6805F480340225E7
:1030800005EB92421CB9214D554305600BE01D4DE7
:103090006D6805F400351DB11C4D5543056002E017
:1030A000194D5543056002E0174D056000BF00BF94
:1030B000144D6D6805F0F0010909154D6B5C05684C
:1030C000DD4045600F4D6D6805F4E061090A104D63
:1030D0006B5C4568DD4085600A4D6D6805F46051A4
:1030E000C90A0B4D6B5C4568DD40C560054D6D68D8
:1030F00005F44041890B074D6B5CC568B5FBF3F5E2
:10310000056130BD0010024000127A0000093D0048
:103110001000002020000020704710B500F002F8D9
:1031200010BD00000CB500200190009033480068ED
:1031300040F480303149086000BF3048006800F436
:10314000003000900198401C0190009818B9019837
:10315000B0F5A06FF1D12948006800F4003010B13B
:103160000120009001E0002000900098012843D148
:103170002348006840F010002149086008460068B4
:1031800020F0030008600846006840F00200086074
:103190001A4840681949486008464068486008462F
:1031A000406840F4806048600846406820F47C1025
:1031B00048600846406840F4E810486008460068E7
:1031C00040F08070086000BF0C48006800F000709C
:1031D0000028F9D00948406820F0030007494860FA
:1031E0000846406840F00200486000BF034840685D
:1031F00000F00C000828F9D10CBD000000100240BE
:1032000000200240042808D14FF0E021096941F074
:1032100004014FF0E022116107E04FF0E02109695D
:1032200021F004014FF0E022116170477047000067
:1032300010B51348006840F00100114908600846C5
:103240004068104908400E494860084600680E4929
:1032500008400B4908600846006820F48020086098
:103260000846406820F4FE0048604FF41F00886064
:10327000FFF753FF4FF000600449086010BD0000E5
:10328000001002400000FFF8FFFFF6FE08ED00E02E
:103290002DE9F041FEF7CCFF804603F0B7FD06466E
:1032A00000220D4B03F044FB044603F00FFB0B49D7
:1032B00008600846006803F0A9FD044622460B4654
:1032C00007A10948FDF71AF8074A08210220FFF76D
:1032D00027FEBDE8F0810000000024400C00002023
:1032E00025342E3266000000FC0200201FB54FF48A
:1032F000A060FFF767FC01210846FFF763FE4FF06F
:10330000804000F045F94EF65F20ADF8080041F628
:103310001F40ADF804000020ADF80600ADF80A002B
:1033200001A94FF0804000F043FA0121880700F026
:103330001FF901221146900700F02FFA012188079A
:1033400000F019F91C208DF8000002208DF8010012
:1033500001208DF802008DF803006846FFF7FAFBA4
:103360001FBD10B50121880700F006FA28B101F051
:1033700041FB0121880700F0FBF810BD1FB54FF499
:10338000A060FFF71FFC01210220FFF71BFE184879
:1033900000F0FEF844F61F60ADF8080041F61F404B
:1033A000ADF804000020ADF80600ADF80A0001A950
:1033B0000F4800F0FDF901210D4800F0D9F8012275
:1033C00011460B4800F0E9F90121094800F0D3F853
:1033D0001D208DF8000001208DF8010000208DF8DF
:1033E000020001208DF803006846FFF7B3FB1FBD04
:1033F000000400401FB54FF4A060FFF7E3FB01217C
:103400000220FFF7DFFD184800F0C2F84EF65F20FB
:10341000ADF8080048F69F40ADF804000020ADF874
:103420000600ADF80A0001A90F4800F0C1F901211A
:103430000D4800F09DF8012211460B4800F0ADF94F
:103440000121094800F097F81D208DF800000220A6
:103450008DF8010001208DF802008DF80300684608
:10346000FFF778FB1FBD00000004004010B50121EC
:10347000164800F081F938B315480078062819D2AB
:10348000DFE800F003060B0C0D10FFF791FA11E0D6
:10349000FFF774FFFFF78CFA0CE000BF00BFFFF7E7
:1034A00087FA07E000200B4908700021074800F068
:1034B00062F800BF00BF06480078401C044908704D
:1034C0000121024800F054F810BD00000004004043
:1034D000700000207100002010B501211D4800F08F
:1034E0004BF9002834D01C481C4902681C4800686D
:1034F000801CFDF79AF818480088000A18490968E6
:103500000870154800781649096848701448006822
:1035100000F596701249086008460068114909686C
:10352000884202D110480E49086000200A4908600C
:1035300000210E4800F03AF90021064800F01BF87F
:103540000021044800F032F90121024800F010F88F
:1035500010BD0000000800402800002010030020DB
:10356000300000203800002010240020000400401B
:10357000CA430282704721B1028842F001020280F0
:1035800004E002884FF6FE731A4002807047000084
:1035900010B504466848844208D10121C014FFF7E1
:1035A00041FD0021E014FFF73DFDC4E0B4F1804F80
:1035B00008D101210846FFF715FD00210120FFF782
:1035C00011FDB8E05D48844208D101210220FFF7D7
:1035D00009FD00210220FFF705FDACE058488442B8
:1035E00008D101210420FFF7FDFC00210420FFF792
:1035F000F9FCA0E05348844208D101210820FFF7DC
:10360000F1FC00210820FFF7EDFC94E04E488442D5
:1036100008D101211020FFF7E5FC00211020FFF761
:10362000E1FC88E04948844208D101212020FFF7CD
:10363000D9FC00212020FFF7D5FC7CE044488442DF
:1036400008D101214014FFF7EDFC00216014FFF7C1
:10365000E9FC70E03F48844209D10121C804FFF72A
:10366000E1FC00214FF40020FFF7DCFC63E03A4866
:10367000844209D101210805FFF7D4FC00214FF451
:103680008010FFF7CFFC56E03448844209D1012175
:103690004805FFF7C7FC00214FF40010FFF7C2FCFC
:1036A00049E02F48844208D101214020FFF79AFCCD
:1036B00000214020FFF796FC3DE02A48844208D1D3
:1036C00001218020FFF78EFC00218020FFF78AFC7B
:1036D00031E02548844208D101218015FFF782FCA2
:1036E0000021A015FFF77EFC25E02048844209D187
:1036F00001210804FFF796FC00214FF48030FFF70A
:1037000091FC18E01A48844209D101214804FFF7CE
:1037100089FC00214FF40030FFF784FC0BE01548D2
:10372000844208D101218804FFF77CFC00214FF47A
:103730008020FFF777FC10BD002C01400004004002
:1037400000080040000C0040001000400014004041
:1037500000340140004C0140005001400054014041
:1037600000180040001C00400020004000400140C4
:10377000004401400048014030B5024600200023CB
:103780000024158A05EA0103958905EA010413B1AD
:103790000CB1012000E0002030BD1AB183890B4339
:1037A000838102E083898B438381704781847047E2
:1037B000002202881D4B98420ED01D4B98420BD020
:1037C000B0F1804F08D01B4B984205D01A4B98425D
:1037D00002D01A4B984204D14FF68F731A404B888F
:1037E0001A43174B984207D0164B984204D04FF615
:1037F000FF431A40CB881A4302808B8883850B884D
:1038000003850A4B98420BD0094B984208D00E4BC7
:10381000984205D00D4B984202D00D4B984201D1F1
:103820000B7A03860123838270470000002C01403D
:10383000003401400004004000080040000C00403B
:1038400000100040001400400040014000440140CE
:103850000048014070B505460C46224629461348EB
:103860000068801CFCF7E1FE2046E11704EB1161C3
:10387000090A0E4A12681170E11704EB116109126E
:10388000A4EB0121094A126851700848006800F54C
:10389000967006490860084600680549096888422C
:1038A00002D104480149086070BD00003C000020BE
:1038B00044000020EC29002010B540F225511848A2
:1038C00000F09CF858B31748007880B91448001DE0
:1038D000008820B31248001D00881349134A12685B
:1038E000885412480068401C1049086017E00C48D2
:1038F000001D00880C490D4A126888540B48006866
:1039000020B901210A48FFF736FE03E000210848EC
:10391000FFF74CFF05480068401C0449086010BDD3
:103920000044004071000020100300202800002007
:103930000008004001F40072B2F5007F00D100BF22
:10394000CA430280704721B1828942F400528281C9
:1039500004E082894DF6FF731A40828170470000AF
:1039600010B504462048844209D101218803FFF79D
:1039700059FB00214FF48040FFF754FB32E01B4815
:10398000844209D101214804FFF72CFB00214FF4A8
:103990000030FFF727FB25E01548844209D10121BB
:1039A0008804FFF71FFB00214FF48020FFF71AFB6C
:1039B00018E01048844209D10121C804FFF712FB26
:1039C00000214FF40020FFF70DFB0BE00A48844272
:1039D00008D101210805FFF705FB00214FF48010F5
:1039E000FFF700FB10BD000000380140004400401C
:1039F00000480040004C00400050004070B50246B6
:103A0000002400230025002040F66A16B14200D1B0
:103A100000BFC1F3421501F01F03012606FA03F3AC
:103A2000012D02D19689334006E0022D02D1168A7B
:103A3000334001E0968A33400C12012606FA04F462
:103A40001688344013B10CB1012000E0002070BD95
:103A5000F0B50346002400260025002040F66A1732
:103A6000B94200D100BF1846C1F3421401F01F064D
:103A7000012707FA06F5012C01D10C3004E0022CD5
:103A800001D1103000E014301AB107682F430760ED
:103A900002E00768AF430760F0BD00002DE9F04782
:103AA00086B005460E460024A24600BFA146002768
:103AB000B08900B100BF2F462C8A4CF6FF7004403D
:103AC000F08804432C82AC894EF6F3100440B08891
:103AD00031890843718908430443AC81AC8A4FF6AD
:103AE000FF400440B0890443AC8201A8FFF7AAFA62
:103AF0001F48874202D1DDF810A001E0DDF80CA0DC
:103B0000A88900F4004040B10AEBCA0000EB0A109B
:103B100031684900B0FBF1F807E00AEBCA0000EB9E
:103B20000A1031688900B0FBF1F86420B8FBF0F0AE
:103B300004012009642101FB1089A88900F40040D8
:103B400040B1322000EBC900B0FBF1F000F00700FB
:103B5000044308E0322000EB09106421B0FBF1F0CF
:103B600000F00F0004432C8106B0BDE8F087000090
:103B7000003801407047000010B586B004464FF48D
:103B8000A060FFF71FF801214804FFF71BFA01218D
:103B90000420FFF737FA2448FFF7E2FE0420ADF8CF
:103BA000140003208DF8160018208DF8170005A9C1
:103BB0001E48FEF754FC0820ADF8140004208DF8D0
:103BC000170005A91948FEF74AFC01940020ADF83A
:103BD0000800ADF80A00ADF80C00ADF810000C209C
:103BE000ADF80E0001A91048FFF758FF20210E483C
:103BF000FFF7A0FE012240F225510B48FFF728FFF6
:103C000026208DF8000000208DF801008DF80200BC
:103C100001208DF803006846FEF79CFF0121024851
:103C2000FFF791FE06B010BD0044004000080140BF
:103C300010B537A0FCF756FB322000F061FA20B136
:103C400037A0FCF74FFB012010BD3BA0FCF74AFB5F
:103C50003CA0FCF747FB32213FA000F08FFA20B1D7
:103C600040A0FCF73FFB0220EEE745A0FCF73AFB43
:103C700048A0FCF737FB32214BA000F07FFA20B1BF
:103C80004DA0FCF72FFB0320DEE753A0FCF72AFB37
:103C900056A0FCF727FB1E2000F0E6F920B158A043
:103CA000FCF720FB0420CFE75CA0FCF71BFB60A027
:103CB000FCF718FB322162A000F060FA20B164A08A
:103CC000FCF710FB0820BFE768A0FCF70BFB6BA01C
:103CD000FCF708FB32216EA000F050FA20B16FA073
:103CE000FCF700FB0920AFE774A0FCF7FBFA78A013
:103CF000FCF7F8FA642000F00DF920B179A0FCF788
:103D0000F1FA0A20A0E77EA0FCF7ECFA00209BE77E
:103D1000D7BCB1B8B8B4CEBBC4A3BFE90D0A00008C
:103D2000B8B4CEBBCAA7B0DCA3ACD7BCB1B8D6D8A8
:103D3000C6F40D0A00000000B8B4CEBBB3C9B9A6E2
:103D40000D0A0000D7BCB1B8C9E8D6C3535441C46A
:103D5000A3CABD0D0A00000041542B43574D4F44E8
:103D6000453D3100C9E8D6C3535441C4A3CABDCAB6
:103D7000A7B0DCA3ACD7BCB1B8D6D8C6F40D0A0046
:103D8000C9E8D6C3535441C4A3CABDB3C9B9A60D2B
:103D90000A000000D7BCB1B8C8A1CFFBD7D4B6AFDA
:103DA000C1ACBDD30D0A000041542B4357415554BB
:103DB0004F434F4E4E3D3000C8A1CFFBD7D4B6AFD6
:103DC000C1ACBDD3CAA7B0DCA3ACD7BCB1B8D6D800
:103DD000C6F40D0A00000000C8A1CFFBD7D4B6AFCF
:103DE000C1ACBDD3B3C9B9A60D0A0000D7BCB1B8E8
:103DF000C1ACBDD3C2B7D3C9C6F70D0A00000000DD
:103E0000C1ACBDD3C2B7D3C9C6F7CAA7B0DCA3AC97
:103E1000D7BCB1B8D6D8C6F40D0A0000C1ACBDD32A
:103E2000C2B7D3C9C6F7B3C9B9A60D0A00000000CE
:103E3000D7BCB1B8C9E8D6C3CDB8B4AB0D0A000041
:103E400041542B4349504D4F44453D310000000043
:103E5000C9E8D6C3CDB8B4ABCAA7B0DCA3ACD7BC55
:103E6000B1B8D6D8C6F40D0A00000000C9E8D6C320
:103E7000CDB8B4ABB3C9B9A60D0A0000D7BCB1B870
:103E8000B9D8B1D5B6E0C2B7C1ACBDD30D0A0000F8
:103E900041542B4349504D55583D3000B9D8B1D508
:103EA000B6E0C2B7C1ACBDD3CAA7B0DCA3ACD7BC27
:103EB000B1B8D6D8C6F40D0A00000000B9D8B1D503
:103EC000B6E0C2B7C1ACBDD3B3C9B9A60D0A0000F4
:103ED000D7BCB1B8C1ACBDD3B7FECEF1C6F70D0AA1
:103EE00000000000C1ACBDD3B7FECEF1C6F7CAA733
:103EF000B0DCA3ACD7BCB1B8D6D8C6F40D0A00006C
:103F0000C1ACBDD3B7FECEF1C6F7B3C9B9A60D0A91
:103F10000000000010B5044600202E4908604FF450
:103F200080512D48FCF700FC2C482D4902682DA03B
:103F300000F03AFE1AE0642000F092F930A1264821
:103F4000FCF742FB00B115E02FA12348FCF73CFB36
:103F500008B1012010BD2EA11F48FCF735FB08B1A8
:103F60000220F7E721462FA0FCF7BCF9201EA4F1A0
:103F70000104E0D100BF2CA0FCF7B4F9002C01DC57
:103F80000320E7E729A0FCF7ADF9002011490860FC
:103F90004FF480511048FCF7C7FB2CA000F004FE42
:103FA0000CE0642000F05CF92CA10B48FCF70CFB42
:103FB00000B107E021461BA0FCF794F9201EA4F1F4
:103FC0000104EED100BF002C01DC0420C2E7002078
:103FD000C0E700002800002010030020600000203F
:103FE0002437002041542B43495053544152543DEF
:103FF00022544350222C222573222C25640D0A00C2
:10400000434F4E4E45435400434C4F5345440000EC
:10401000414C524541445920434F4E4E454354452F
:1040200044000000256420000D0A0000C1ACBDD38F
:10403000B7FECEF1C6F7B3C9B9A6A3ACD7BCB1B829
:10404000BDF8C8EBCDB8B4AB0D0A000041542B430A
:10405000495053454E440D0A000000000D0A4F4BD5
:104060000D0A0D0A3E00000010B504460020144958
:1040700008604FF480511348FCF756FB12A215A1BB
:1040800016A000F091FD0DE04FF47A7000F0E8F812
:1040900018A10C48FCF798FA00B107E0214616A0D9
:1040A000FCF720F9201EA4F10104EDD100BF13A0FC
:1040B000FCF718F9002C01DC012010BD0020FCE702
:1040C00028000020100300203132333435363738D1
:1040D00000000000437275736800000041542B43D8
:1040E000574A41503D222573222C222573220D0A66
:1040F000000000004F4B0000256420000D0A000066
:1041000010B50446002210211648FEF740FA4FF47D
:10411000FA7000F0A5F8012210211248FEF737FAD4
:104120004FF4FA7000F09CF80DE04FF47A7000F054
:1041300097F80DA10E48FCF747FA00B107E02146B9
:104140000CA0FCF7CFF8201EA4F10104EDD100BFB4
:1041500009A0FCF7C7F8002C01DC012010BD0020ED
:10416000FCE700000008014072656164790000000E
:1041700010030020256420000D0A000070B50546DC
:104180000C460020134908604FF480511248FCF798
:10419000CBFA294611A000F007FD0CE0642000F0E6
:1041A0005FF810A10C48FCF70FFA00B107E02146B8
:1041B0000DA0FCF797F8201EA4F10104EED100BF7A
:1041C0000AA0FCF78FF8002C01DC012070BD002054
:1041D000FCE70000280000201003002025730D0AD2
:1041E000000000004F4B0000256420000D0A000075
:1041F000490050EAC12018BF04204A0D18BF40F002
:10420000010040F2FF72B2EB515F08BF40F00200C4
:10421000012808BF0520704730380A2801D2012044
:1042200070470020704700BF7047000070B504461B
:10423000002600BF06E0064840880544052000F03F
:104240000FF8761CA642F6DB95FBF4F080B270BD49
:10425000F402002010B56FF00400FEF7D3FF10BD8C
:1042600010B50146B1F5E16F22D201EBC1034FF465
:104270007A7463434FF0E02463610023A361234613
:104280001B6943F00103236100BF4FF0E02318696D
:1042900000F001031BB100F48033002BF5D04FF088
:1042A000E0231B6923F001034FF0E02423614FE07A
:1042B00000221FE0274B4FF0E02463610023A3613D
:1042C00023461B6943F00103236100BF4FF0E02345
:1042D000186900F001031BB100F48033002BF5D006
:1042E0004FF0E0231B6923F001034FF0E02423612A
:1042F000531CDAB24FF4E163B1FBF3F39342D9D824
:104300004FF4E163B1FBF3F403FB141303EBC303BA
:104310004FF47A7463434FF0E02463610023A36198
:1043200023461B6943F00103236100BF4FF0E023E4
:10433000186900F001031BB100F48033002BF5D0A5
:104340004FF0E0231B6923F001034FF0E0242361C9
:1043500010BD00004031F700014601EBC1024FF0F3
:10436000E0235A6100229A611A46126942F0010262
:104370001A6100BF4FF0E022106900F001021AB18B
:1043800000F48032002AF5D04FF0E022126922F0CA
:1043900001024FF0E0231A617047000000BF054A98
:1043A000128802F04002002AF9D0C2B2014B1B1D54
:1043B0001A807047003801404FF4E13000F022FCD1
:1043C000C8A000F0A3FB4FF4E130FFF7D5FB4FF49A
:1043D000E1514FF4FA7000F065FBFFF73BFF02F08C
:1043E0002FFAFDF7B1FCFDF723FEFDF71BFCFEF7EE
:1043F000D5F8FDF797FDFEF785FC00F0E5FAFDF72F
:104400005BFF6EE1BC4800884FF47A71484340F688
:10441000FF7190FBF1F0B94908700A20FFF706FF21
:104420006421484340F6FF7190FBF1F06438C0F11D
:104430006400B3490870B04880884FF47A714843EB
:1044400040F6FF7190FBF1F0C0F16400AD490870D7
:10445000A948C0884FF47A71484340F6FF7190FB39
:10446000F1F0A9490870A94BA94AAA49AA48FDF741
:1044700034FEFEF70DFF00F055FAA8480078012839
:1044800072D1A7480068A749096888422AD0A44881
:104490000068807810280CD0A148006880788228B5
:1044A00003D1A1480078012803D0A0480078012852
:1044B00018D19B48006881789DA000F027FB9848A0
:1044C000006800F051FB9648006800F5967094492A
:1044D0000860084600689A490968884202D19948EC
:1044E0008F4908609848006898490968884279D0DF
:1044F00097A000F00BFB94480068807820283CD1FE
:1045000091480068407906282FD2DFE800F0030ABE
:1045100011181F2673A000F0F9FA012082490870D3
:104520002AE08EA000F0F2FA00207C49087023E017
:1045300095A000F0EBFA0020784908701CE09EA0DE
:1045400000F0E4FA00207549087015E0A4A000F01E
:10455000DDFA0020714908700EE0ACA000F0D6FA38
:1045600000206E49087007E095E0B0A000F0CEFA98
:1045700000206A49087000BF4BE0734800688078EB
:1045800090281FD170480068807910B1012811D19E
:1045900000E000BFAEA000F0B9FA01206349087046
:1045A0000020AE490870FEF725FF00F023FAFEF761
:1045B0009DFE06E0AAA000F0A9FA00205749087065
:1045C00000BF26E0604800688078D02815D1AAA0F6
:1045D00000F09CFAA1480078012804D100209F49EE
:1045E000087016E024E09D480078012811DD0020C5
:1045F0009A490870FEF7FEFE0BE053480068807889
:10460000302806D1A0A000F081FA4F480068FEF7DC
:104610004BF94D48006800F596704B490860084614
:1046200000689E490968884202D19D484649086051
:104630009C4800689C490968884252D099480168A2
:10464000891C9AA000F062FA9BA196480068801C21
:10465000FBF7BAFF20B101219C48FDF796FF0AE065
:104660009BA190480068801CFBF7AEFF18B10121A8
:104670009648FDF788FF8B48006800F596708949D9
:1046800008600846006897490968884229D1964819
:104690008449086025E095A000F038FA0021984888
:1046A000FEF769FF00219748FEF765FF0020964955
:1046B00008604FF480519548FCF736F8FFF7B8FAD8
:1046C00078B993A000F022FA012014490870002064
:1046D0008D4908604FF480518C48FCF725F8FDF7B0
:1046E00077FF8FE6434F4E4E454354B1A8CEC4B337
:1046F000C9B9A60D0A000000F4020020070000203E
:10470000060000200800002009000020030000200F
:1047100002000020010000200000002071000020A5
:10472000400000203C0000207200002073000020A8
:10473000B7A2CBCDCAFDBEDD3A307825780D0A0090
:1047400044000020EC29002034000020300000202C
:10475000BDD3CAD5B5BDCAFDBEDD3A00C1ACBDD31F
:10476000D2D1BEDCBEF8A3ACB2BBD6A7B3D6B5C41B
:10477000D0ADD2E9B0E6B1BEA3ACD7BCB1B8D6D803
:10478000C6F40D0A00000000C1ACBDD3D2D1BEDC1E
:10479000BEF8A3ACB2BBBACFB8F1B5C4BFCDBBA70E
:1047A000B6CBB1EACAB6B7FBA3ACD7BCB1B8D6D8C2
:1047B000C6F40D0A00000000C1ACBDD3D2D1BEDCEE
:1047C000BEF8A3ACB7FECEF1B6CBB2BBBFC9D3C364
:1047D000A3ACD7BCB1B8D6D8C6F40D0A000000000F
:1047E000C1ACBDD3D2D1BEDCBEF8A3ACCEDED0A767
:1047F000B5C4D3C3BBA7C3FBBBF2C3DCC2EBA3AC42
:10480000D7BCB1B8D6D8C6F40D0A0000C1ACBDD330
:10481000D2D1BEDCBEF8A3ACCEB4CADAC8A8A3AC71
:10482000D7BCB1B8D6D8C6F40D0A0000C1ACBDD310
:10483000D2D1BEDCBEF8A3ACCEB4D6AAD7B4CCAC31
:10484000A3ACD7BCB1B8D6D8C6F40D0A000000009E
:10485000B6A9D4C4B3C9B9A60D0A000070000020DF
:10486000B6A9D4C4CAA7B0DCA3ACD7BCB1B8D6D85B
:10487000C6F40D0A0000000050494E47B1A8CEC44E
:10488000BBD8B8B40D0A0000B7FECEF1C6F7B5C864
:10489000BCB630CDC6CBCD0D0A00000038000020DC
:1048A000102400204C00002048000020C3FCC1EE72
:1048B0003A25730D0A00000022706172616D732247
:1048C0003A7B224C4544223A317D0000000C0140E5
:1048D00022706172616D73223A7B224C4544223A08
:1048E000307D000050000020C82F0020D0E8D2AA60
:1048F000C1ACBDD3B7FECEF1C6F70D0A0000000073
:1049000000080040000400402800002010030020A0
:10491000BDA8C1A2544350C1ACBDD3B3C9B9A60D03
:104920000A00000010B51DA201210846FEF7F8FAA2
:1049300004231D4802780A210120FEF7CFFA1BA2AA
:1049400001210220FEF7ECFA012211460320FEF7B6
:104950004BFA022203210846FEF746FA03220521FC
:104960001046FEF741FA012312480278072103207E
:10497000FEF7B4FA01231048027808210320FEF75D
:10498000ADFA0EA201210420FEF7CAFA03230D4856
:10499000027808210420FEF7A1FA10BD5072657359
:1049A000737572653A0000000700002054656D7051
:1049B0003A00000000000020010000206C73656ECA
:1049C000733A00000600002008B501210820FEF718
:1049D00019FBC020ADF8000003208DF80200102064
:1049E0008DF8030069460248FDF739FD08BD000057
:1049F0000008014030B5C7B01848006802F006FA58
:104A0000044617480078CDE904410690154801781E
:104A100015480078154A1278CDE900200291144813
:104A2000007800EB80001349097801EB400312483D
:104A3000007800EB80001149097801EB4002104931
:104A400007A8FBF75BFC07A8FBF7D0FD044622464E
:104A500007A90CA0FDF7BAFF47B030BD0C0000203D
:104A600009000020080000200600002007000020A8
:104A700002000020030000200000002001000020B0
:104A8000047600082F6B306635756C6F53675933A9
:104A90002F53544D33322F757365722F75706461C7
:104AA000746500007FB505460C4601210420FEF721
:104AB00089FAADF80850ADF804400020ADF80600C2
:104AC000ADF80A0001A91048FEF772FE01210E4858
:104AD000FEF74EFD012211460B48FEF75EFE002157
:104AE0000948FEF748FD1E208DF8000006208DF8CD
:104AF000010000208DF8020001208DF803006846B7
:104B0000FEF728F87FBD0000000800400FB438B55C
:104B100005A800901248009A0499FBF7D1FB0020E9
:104B200000900F48FBF762FD054600BF0D48008866
:104B300000F040000028F9D000240CE00848005D97
:104B40000849091D088000BF0648008800F04000A1
:104B50000028F9D0641CAC42F0D338BC5DF814FBDB
:104B6000102300200038014000BF0E4A128802F0D6
:104B70004002002AF9D001210CE04A1C825C094B5A
:104B80001B1D1A8000BF074A128802F04002002A4B
:104B9000F9D0491C4378027803EB02228A42ECDA0E
:104BA00070470000004400400FB438B505A80090DD
:104BB0001248009A0499FBF783FB002000900F48ED
:104BC000FBF714FD054600BF0D48008800F04000CB
:104BD0000028F9D000240CE00848005D0849091DB0
:104BE000088000BF0648008800F040000028F9D087
:104BF000641CAC42F0D338BC5DF814FB10130020E9
:104C00000044004010B586B0044601218803FEF739
:104C1000F9F901210420FEF7F5F94FF40070ADF821
:104C2000140003208DF8160018208DF8170005A930
:104C30001248FDF714FC4FF48060ADF81400042016
:104C40008DF8170005A90D48FDF709FC0194002017
:104C5000ADF80800ADF80A00ADF80C00ADF8100092
:104C60000820ADF80E0001A90548FEF717FF012145
:104C70000348FEF768FE06B010BD000000080140C2
:104C800000380140014601F00F010A2902DA01F162
:104C9000300001E001F1570040B270472DE9F043C8
:104CA000BDB00646884615461F46DDF810910EB188
:104CB00005B117B93DB0BDE8F083B9F1400F00DD93
:104CC000F8E7402116A8FBF751FD402106A8FBF7A5
:104CD0004DFD4A46394616A8FBF7A7FC4A46394619
:104CE00006A8FBF7A2FC00240CE016A8005D80F0EB
:104CF000360016A9085506A8005D80F05C0006A9DC
:104D00000855641C402CF0DB26A800F0AFF826A85C
:104D100001F042FD402216A926A801F053FD4246AB
:104D2000314626A801F04EFD01A926A800F02AF878
:104D300026A800F09BF826A801F02EFD402206A927
:104D400026A801F03FFD142201A926A801F03AFD92
:104D500001A926A800F016F800240FE001A9095DBA
:104D60000811FFF78FFF05F8140001A9085DFFF790
:104D700089FF012101EB44016854641C142CEDDB14
:104D800000BF97E72DE9FC4704460D462068400F19
:104D9000616840EAC1062068C700300E8DF8000047
:104DA000300C8DF80100300A8DF80200F0B28DF859
:104DB0000300380E8DF80400380C8DF80500380A11
:104DC0008DF80600F8B28DF80700207800F03F0853
:104DD000B8F1380F02D2C8F1380001E0C8F178000C
:104DE00081464A462049204601F0ECFC08226946EB
:104DF000204601F0E7FCA068000E2870A068000CB7
:104E000068702089000AA870207AE870E068000EB7
:104E10002871E068000C6871A089000AA871207BE5
:104E2000E8712069000E28722069000C6872208ADF
:104E3000000AA872207CE8726069000E287360691D
:104E4000000C6873A08A000AA873207DE873A0692B
:104E5000000E2874A069000C6874208B000AA874E6
:104E6000207EE874BDE8FC87EC74000810B50446A9
:104E70005C212046FBF77AFC10BD00002DE9F043D1
:104E800090B007460E4696F800C04FEA0C6C96F8B4
:104E900001804CEA084C96F802804CEA082C96F8FF
:104EA00003804CEA080CCDF800C096F804C04FEA25
:104EB0000C6C96F805804CEA084C96F806804CEA93
:104EC000082C96F807804CEA080CCDF804C096F838
:104ED00008C04FEA0C6C96F809804CEA084C96F82A
:104EE0000A804CEA082C96F80B804CEA080CCDF8A6
:104EF00008C096F80CC04FEA0C6C96F80D804CEA8E
:104F0000084C96F80E804CEA082C96F80F804CEA74
:104F1000080CCDF80CC096F810C04FEA0C6C96F84F
:104F200011804CEA084C96F812804CEA082C96F84E
:104F300013804CEA080CCDF810C096F814C04FEA64
:104F40000C6C96F815804CEA084C96F816804CEAE2
:104F5000082C96F817804CEA080CCDF814C096F887
:104F600018C04FEA0C6C96F819804CEA084C96F879
:104F70001A804CEA082C96F81B804CEA080CCDF8F5
:104F800018C096F81CC04FEA0C6C96F81D804CEACD
:104F9000084C96F81E804CEA082C96F81F804CEAC4
:104FA000080CCDF81CC096F820C04FEA0C6C96F89F
:104FB00021804CEA084C96F822804CEA082C96F89E
:104FC00023804CEA080CCDF820C096F824C04FEAA4
:104FD0000C6C96F825804CEA084C96F826804CEA32
:104FE000082C96F827804CEA080CCDF824C096F8D7
:104FF00028C04FEA0C6C96F829804CEA084C96F8C9
:105000002A804CEA082C96F82B804CEA080CCDF844
:1050100028C096F82CC04FEA0C6C96F82D804CEA0C
:10502000084C96F82E804CEA082C96F82F804CEA13
:10503000080CCDF82CC096F830C04FEA0C6C96F8EE
:1050400031804CEA084C96F832804CEA082C96F8ED
:1050500033804CEA080CCDF830C096F834C04FEAE3
:105060000C6C96F835804CEA084C96F836804CEA81
:10507000082C96F837804CEA080CCDF834C096F826
:1050800038C04FEA0C6C96F839804CEA084C96F818
:105090003A804CEA082C96F83B804CEA080CCDF894
:1050A00038C096F83CC04FEA0C6C96F83D804CEA4C
:1050B000084C96F83E804CEA082C96F83F804CEA63
:1050C000080CCDF83CC0B868F9683A697B69BC69DE
:1050D0004FEA401C4CEAD06882EA030C0CEA010C4F
:1050E0008CEA030CC444DFF8F88FC444DDF8008078
:1050F000C44464444FEA817C4CEA91014FEA441C69
:105100004CEAD46881EA020C0CEA000C8CEA020C2E
:10511000C444DFF8CC8FC444DDF80480C444634445
:105120004FEA807C4CEA90004FEA431C4CEAD3687B
:1051300080EA010C0CEA040C8CEA010CC444DFF890
:10514000A08FC444DDF80880C44462444FEA847CE4
:105150004CEA94044FEA421C4CEAD26884EA000C00
:105160000CEA030C8CEA000CC444DFF8748FC444CE
:10517000DDF80C80C44461444FEA837C4CEA93031D
:105180004FEA411C4CEAD16883EA040C0CEA020C99
:105190008CEA040CC444DFF8488FC444DDF8108066
:1051A000C44460444FEA827C4CEA92024FEA401CBD
:1051B0004CEAD06882EA030C0CEA010C8CEA030C7E
:1051C000C444DFF81C8FC444DDF81480C444644434
:1051D0004FEA817C4CEA91014FEA441C4CEAD468C6
:1051E00081EA020C0CEA000C8CEA020CC444DFF8E1
:1051F000F08EC444DDF81880C44463444FEA807CD8
:105200004CEA90004FEA431C4CEAD36880EA010C58
:105210000CEA040C8CEA010CC444DFF8C48EC444CC
:10522000DDF81C80C44462444FEA847C4CEA940458
:105230004FEA421C4CEAD26884EA000C0CEA030CE8
:105240008CEA000CC444DFF8988EC444DDF820805A
:10525000C44461444FEA837C4CEA93034FEA411C07
:105260004CEAD16883EA040C0CEA020C8CEA040CC8
:10527000C444DFF86C8EC444DDF82480C444604428
:105280004FEA827C4CEA92024FEA401C4CEAD0681A
:1052900082EA030C0CEA010C8CEA030CC444DFF82C
:1052A000408EC444DDF82880C44464444FEA817CC5
:1052B0004CEA91014FEA441C4CEAD46881EA020CA2
:1052C0000CEA000C8CEA020CC444DFF8148EC444CF
:1052D000DDF82C80C44463444FEA807C4CEA9000A3
:1052E0004FEA431C4CEAD36880EA010C0CEA040C38
:1052F0008CEA010CC444DFF8E88DC444DDF830804A
:10530000C44462444FEA847C4CEA94044FEA421C51
:105310004CEAD26884EA000C0CEA030C8CEA000C1C
:10532000C444DFF8BC8DC444DDF83480C444614417
:105330004FEA837C4CEA93034FEA411C4CEAD16864
:1053400083EA040C0CEA020C8CEA040CC444DFF877
:10535000908DC444DDF83880C44460444FEA827CB8
:105360004CEA92024FEA401C4CEAD06882EA030CF5
:105370000CEA010C8CEA030CC444DFF8648DC444CD
:10538000DDF83C80C44464444FEA817C4CEA9101DE
:10539000DDF834C0DDF820808CEA080CDDF80880E8
:1053A0008CEA080CDDF800808CEA08054FEA450C11
:1053B0004CEAD5784FEA441C4CEAD46981EA020CE5
:1053C0000CEA000C8CEA020CCC44DFF8149DCC44AF
:1053D000C4446344CDF800804FEA807C4CEA9000DE
:1053E000DDF838C0DDF824808CEA080CDDF80C808C
:1053F0008CEA080CDDF804808CEA08054FEA450CBD
:105400004CEAD5784FEA431C4CEAD36980EA010C98
:105410000CEA040C8CEA010CCC44DFF8C49CCC44AC
:10542000C4446244CDF804804FEA847C4CEA94047E
:10543000DDF83CC0DDF828808CEA080CDDF810802F
:105440008CEA080CDDF808808CEA08054FEA450C68
:105450004CEAD5784FEA421C4CEAD26984EA000C47
:105460000CEA030C8CEA000CCC44DFF8749CCC44AE
:10547000C4446144CDF808804FEA837C4CEA93032E
:10548000DDF800C0DDF82C808CEA080CDDF8148013
:105490008CEA080CDDF80C808CEA08054FEA450C14
:1054A0004CEAD5784FEA411C4CEAD16983EA040CF6
:1054B0000CEA020C8CEA040CCC44DFF8249CCC44AB
:1054C000C4446044CDF80C804FEA827C4CEA9202DE
:1054D000DDF804C0DDF830808CEA080CDDF81880B7
:1054E0008CEA080CDDF810808CEA08054FEA450CC0
:1054F0004CEAD5784FEA401C4CEAD06981EA020CAC
:105500008CEA030CCC44DFF8DC9BCC44C4446444F8
:10551000CDF810804FEA817C4CEA9101DDF808C09B
:10552000DDF834808CEA080CDDF81C808CEA080C6D
:10553000DDF814808CEA08054FEA450C4CEAD57872
:105540004FEA441C4CEAD46980EA010C8CEA020C54
:10555000CC44DFF8909BCC44C4446344CDF8148021
:105560004FEA807C4CEA9000DDF80CC0DDF8388012
:105570008CEA080CDDF820808CEA080CDDF8188035
:105580008CEA08054FEA450C4CEAD5784FEA431CF3
:105590004CEAD36984EA000C8CEA010CCC44DFF8B5
:1055A000449BCC44C4446244CDF818804FEA847CC8
:1055B0004CEA9404DDF810C0DDF83C808CEA080C5D
:1055C000DDF824808CEA080CDDF81C808CEA0805E4
:1055D0004FEA450C4CEAD5784FEA421C4CEAD269B6
:1055E00083EA040C8CEA000CCC44DFF8F89ACC4433
:1055F000C4446144CDF81C804FEA837C4CEA930399
:10560000DDF814C0DDF800808CEA080CDDF8288095
:105610008CEA080CDDF820808CEA08054FEA450C7E
:105620004CEAD5784FEA411C4CEAD16982EA030C76
:105630008CEA040CCC44DFF8AC9ACC44C4446044FB
:10564000CDF820804FEA827C4CEA9202DDF818C047
:10565000DDF804808CEA080CDDF82C808CEA080C5C
:10566000DDF824808CEA08054FEA450C4CEAD57831
:105670004FEA401C4CEAD06981EA020C8CEA030C28
:10568000CC44DFF8609ACC44C4446444CDF8248010
:105690004FEA817C4CEA9101DDF81CC0DDF80880FE
:1056A0008CEA080CDDF830808CEA080CDDF82880E4
:1056B0008CEA08054FEA450C4CEAD5784FEA441CC1
:1056C0004CEAD46980EA010C8CEA020CCC44DFF885
:1056D000149ACC44C4446344CDF828804FEA807CBB
:1056E0004CEA9000DDF820C0DDF80C808CEA080C54
:1056F000DDF834808CEA080CDDF82C808CEA080593
:105700004FEA450C4CEAD5784FEA431C4CEAD36982
:1057100084EA000C8CEA010CCC44DFF8C899CC4434
:10572000C4446244CDF82C804FEA847C4CEA940453
:10573000DDF824C0DDF810808CEA080CDDF8388034
:105740008CEA080CDDF830808CEA08054FEA450C3D
:105750004CEAD5784FEA421C4CEAD26983EA040C41
:105760008CEA000CCC44DFF87C99CC44C4446144FE
:10577000CDF830804FEA837C4CEA9303DDF828C0F3
:10578000DDF814808CEA080CDDF83C808CEA080C0B
:10579000DDF834808CEA08054FEA450C4CEAD578F0
:1057A0004FEA411C4CEAD16982EA030C8CEA040CF2
:1057B000CC44DFF83099CC44C4446044CDF8348004
:1057C0004FEA827C4CEA9202DDF82CC0DDF81880AA
:1057D0008CEA080CDDF800808CEA080CDDF83880D3
:1057E0008CEA08054FEA450C4CEAD5784FEA401C94
:1057F0004CEAD06981EA020C8CEA030CCC44DFF855
:10580000E498CC44C4446444CDF838804FEA817CA9
:105810004CEA9101DDF830C0DDF81C808CEA080C00
:10582000DDF804808CEA080CDDF83C808CEA080581
:105830004FEA450C4CEAD5784FEA441C4CEAD4694F
:1058400080EA010C8CEA020CCC44DFF89898CC4436
:10585000C4446344CDF83C804FEA807C4CEA90001D
:10586000DDF834C0DDF820808CEA080CDDF8088013
:105870008CEA080CDDF800808CEA08054FEA450C3C
:105880004CEAD5784FEA431C4CEAD36984EA000C11
:105890008CEA010CCC44DFF84C98CC44C4446244FC
:1058A000CDF800804FEA847C4CEA9404DDF838C0DF
:1058B000DDF824808CEA080CDDF80C808CEA080CFA
:1058C000DDF804808CEA08054FEA450C4CEAD578EF
:1058D0004FEA421C4CEAD26983EA040C8CEA000CC1
:1058E000CC44DFF80098CC44C4446144CDF8048033
:1058F0004FEA837C4CEA9303DDF83CC0DDF8288056
:105900008CEA080CDDF810808CEA080CDDF80880C1
:105910008CEA08054FEA450C4CEAD5784FEA411C61
:105920004CEAD16982EA030C8CEA040CCC44DFF81F
:10593000B497CC44C4446044CDF808804FEA827CDC
:105940004CEA9202DDF800C0DDF82C808CEA080CED
:10595000DDF814808CEA080CDDF80C808CEA080570
:105960004FEA450C4CEAD5784FEA401C4CEAD06926
:1059700081EA020C8CEA030CCC44DFF86897CC4433
:10598000C4446444CDF80C804FEA817C4CEA910118
:10599000DDF804C0DDF830808CEA080CDDF81880F2
:1059A0008CEA080CDDF810808CEA08054FEA450CFB
:1059B0004CEAD5784FEA441C4CEAD46980EA010CE1
:1059C0008CEA020CCC44DFF81C97CC44C4446344FA
:1059D000CDF810804FEA807C4CEA9000DDF808C0DA
:1059E000DDF834808CEA080CDDF81C808CEA080CA9
:1059F000DDF814808CEA08054FEA450C4CEAD578AE
:105A00004FEA431C4CEAD36984EA000C8CEA010C8F
:105A1000CC44DFF8D096CC44C4446244CDF8148022
:105A20004FEA847C4CEA9404DDF80CC0DDF8388041
:105A30008CEA080CDDF820808CEA080CDDF8188070
:105A40008CEA08054FEA450C4CEAD5784FEA421C2F
:105A50004CEAD26983EA040C8CEA000CCC44DFF8EF
:105A60008496CC44C4446144CDF818804FEA837CCA
:105A70004CEA9303DDF810C0DDF83C808CEA080C9A
:105A8000DDF824808CEA080CDDF81C808CEA08051F
:105A90004FEA450C4CEAD5784FEA411C4CEAD169F3
:105AA00082EA030C8CEA040CCC44DFF83896CC4430
:105AB000C4446044CDF81C804FEA827C4CEA9202D8
:105AC0004FEA401C4CEAD06901EA020C41EA0208A4
:105AD00008EA03084CEA080CCC44DFF80C86E044E2
